{
  "address": "0x222E0974365B3B06CB1AD473C542991ed888fDe1",
  "abi": [
    {
      "type": "constructor",
      "payable": false,
      "inputs": [
        {
          "type": "address",
          "name": "admin_"
        },
        {
          "type": "address",
          "name": "recoveryAdmin_"
        },
        {
          "type": "uint256",
          "name": "timelockPeriod_"
        },
        {
          "type": "address",
          "name": "lossless_"
        },
        {
          "type": "address",
          "name": "minter_"
        }
      ]
    },
    {
      "type": "event",
      "anonymous": false,
      "name": "Approval",
      "inputs": [
        {
          "type": "address",
          "name": "_owner",
          "indexed": true
        },
        {
          "type": "address",
          "name": "_spender",
          "indexed": true
        },
        {
          "type": "uint256",
          "name": "_value",
          "indexed": false
        }
      ]
    },
    {
      "type": "event",
      "anonymous": false,
      "name": "LosslessOff",
      "inputs": []
    },
    {
      "type": "event",
      "anonymous": false,
      "name": "LosslessOn",
      "inputs": []
    },
    {
      "type": "event",
      "anonymous": false,
      "name": "LosslessTurnOffProposal",
      "inputs": [
        {
          "type": "uint256",
          "name": "_turnOffDate",
          "indexed": false
        }
      ]
    },
    {
      "type": "event",
      "anonymous": false,
      "name": "NewAdmin",
      "inputs": [
        {
          "type": "address",
          "name": "_newAdmin",
          "indexed": true
        }
      ]
    },
    {
      "type": "event",
      "anonymous": false,
      "name": "NewRecoveryAdmin",
      "inputs": [
        {
          "type": "address",
          "name": "_newAdmin",
          "indexed": true
        }
      ]
    },
    {
      "type": "event",
      "anonymous": false,
      "name": "NewRecoveryAdminProposal",
      "inputs": [
        {
          "type": "address",
          "name": "_candidate",
          "indexed": true
        }
      ]
    },
    {
      "type": "event",
      "anonymous": false,
      "name": "RoleAdminChanged",
      "inputs": [
        {
          "type": "bytes32",
          "name": "role",
          "indexed": true
        },
        {
          "type": "bytes32",
          "name": "previousAdminRole",
          "indexed": true
        },
        {
          "type": "bytes32",
          "name": "newAdminRole",
          "indexed": true
        }
      ]
    },
    {
      "type": "event",
      "anonymous": false,
      "name": "RoleGranted",
      "inputs": [
        {
          "type": "bytes32",
          "name": "role",
          "indexed": true
        },
        {
          "type": "address",
          "name": "account",
          "indexed": true
        },
        {
          "type": "address",
          "name": "sender",
          "indexed": true
        }
      ]
    },
    {
      "type": "event",
      "anonymous": false,
      "name": "RoleRevoked",
      "inputs": [
        {
          "type": "bytes32",
          "name": "role",
          "indexed": true
        },
        {
          "type": "address",
          "name": "account",
          "indexed": true
        },
        {
          "type": "address",
          "name": "sender",
          "indexed": true
        }
      ]
    },
    {
      "type": "event",
      "anonymous": false,
      "name": "Transfer",
      "inputs": [
        {
          "type": "address",
          "name": "_from",
          "indexed": true
        },
        {
          "type": "address",
          "name": "_to",
          "indexed": true
        },
        {
          "type": "uint256",
          "name": "_value",
          "indexed": false
        }
      ]
    },
    {
      "type": "function",
      "name": "DEFAULT_ADMIN_ROLE",
      "constant": true,
      "stateMutability": "view",
      "payable": false,
      "inputs": [],
      "outputs": [
        {
          "type": "bytes32"
        }
      ]
    },
    {
      "type": "function",
      "name": "acceptRecoveryAdminOwnership",
      "constant": false,
      "payable": false,
      "inputs": [
        {
          "type": "bytes",
          "name": "key"
        }
      ],
      "outputs": []
    },
    {
      "type": "function",
      "name": "admin",
      "constant": true,
      "stateMutability": "view",
      "payable": false,
      "inputs": [],
      "outputs": [
        {
          "type": "address"
        }
      ]
    },
    {
      "type": "function",
      "name": "allowance",
      "constant": true,
      "stateMutability": "view",
      "payable": false,
      "inputs": [
        {
          "type": "address",
          "name": "owner"
        },
        {
          "type": "address",
          "name": "spender"
        }
      ],
      "outputs": [
        {
          "type": "uint256"
        }
      ]
    },
    {
      "type": "function",
      "name": "approve",
      "constant": false,
      "payable": false,
      "inputs": [
        {
          "type": "address",
          "name": "spender"
        },
        {
          "type": "uint256",
          "name": "amount"
        }
      ],
      "outputs": [
        {
          "type": "bool"
        }
      ]
    },
    {
      "type": "function",
      "name": "balanceOf",
      "constant": true,
      "stateMutability": "view",
      "payable": false,
      "inputs": [
        {
          "type": "address",
          "name": "account"
        }
      ],
      "outputs": [
        {
          "type": "uint256"
        }
      ]
    },
    {
      "type": "function",
      "name": "burn",
      "constant": false,
      "payable": false,
      "inputs": [
        {
          "type": "uint256",
          "name": "amount"
        }
      ],
      "outputs": []
    },
    {
      "type": "function",
      "name": "burnFrom",
      "constant": false,
      "payable": false,
      "inputs": [
        {
          "type": "address",
          "name": "account"
        },
        {
          "type": "uint256",
          "name": "amount"
        }
      ],
      "outputs": []
    },
    {
      "type": "function",
      "name": "decimals",
      "constant": true,
      "stateMutability": "view",
      "payable": false,
      "inputs": [],
      "outputs": [
        {
          "type": "uint8"
        }
      ]
    },
    {
      "type": "function",
      "name": "decreaseAllowance",
      "constant": false,
      "payable": false,
      "inputs": [
        {
          "type": "address",
          "name": "spender"
        },
        {
          "type": "uint256",
          "name": "subtractedValue"
        }
      ],
      "outputs": [
        {
          "type": "bool"
        }
      ]
    },
    {
      "type": "function",
      "name": "executeLosslessTurnOff",
      "constant": false,
      "payable": false,
      "inputs": [],
      "outputs": []
    },
    {
      "type": "function",
      "name": "executeLosslessTurnOn",
      "constant": false,
      "payable": false,
      "inputs": [],
      "outputs": []
    },
    {
      "type": "function",
      "name": "getAdmin",
      "constant": true,
      "stateMutability": "view",
      "payable": false,
      "inputs": [],
      "outputs": [
        {
          "type": "address"
        }
      ]
    },
    {
      "type": "function",
      "name": "getRoleAdmin",
      "constant": true,
      "stateMutability": "view",
      "payable": false,
      "inputs": [
        {
          "type": "bytes32",
          "name": "role"
        }
      ],
      "outputs": [
        {
          "type": "bytes32"
        }
      ]
    },
    {
      "type": "function",
      "name": "grantRole",
      "constant": false,
      "payable": false,
      "inputs": [
        {
          "type": "bytes32",
          "name": "role"
        },
        {
          "type": "address",
          "name": "account"
        }
      ],
      "outputs": []
    },
    {
      "type": "function",
      "name": "hasRole",
      "constant": true,
      "stateMutability": "view",
      "payable": false,
      "inputs": [
        {
          "type": "bytes32",
          "name": "role"
        },
        {
          "type": "address",
          "name": "account"
        }
      ],
      "outputs": [
        {
          "type": "bool"
        }
      ]
    },
    {
      "type": "function",
      "name": "increaseAllowance",
      "constant": false,
      "payable": false,
      "inputs": [
        {
          "type": "address",
          "name": "spender"
        },
        {
          "type": "uint256",
          "name": "addedValue"
        }
      ],
      "outputs": [
        {
          "type": "bool"
        }
      ]
    },
    {
      "type": "function",
      "name": "isLosslessOn",
      "constant": true,
      "stateMutability": "view",
      "payable": false,
      "inputs": [],
      "outputs": [
        {
          "type": "bool"
        }
      ]
    },
    {
      "type": "function",
      "name": "lossless",
      "constant": true,
      "stateMutability": "view",
      "payable": false,
      "inputs": [],
      "outputs": [
        {
          "type": "address"
        }
      ]
    },
    {
      "type": "function",
      "name": "losslessTurnOffTimestamp",
      "constant": true,
      "stateMutability": "view",
      "payable": false,
      "inputs": [],
      "outputs": [
        {
          "type": "uint256"
        }
      ]
    },
    {
      "type": "function",
      "name": "mint",
      "constant": false,
      "payable": false,
      "inputs": [
        {
          "type": "address",
          "name": "to"
        },
        {
          "type": "uint256",
          "name": "amount"
        }
      ],
      "outputs": []
    },
    {
      "type": "function",
      "name": "name",
      "constant": true,
      "stateMutability": "view",
      "payable": false,
      "inputs": [],
      "outputs": [
        {
          "type": "string"
        }
      ]
    },
    {
      "type": "function",
      "name": "proposeLosslessTurnOff",
      "constant": false,
      "payable": false,
      "inputs": [],
      "outputs": []
    },
    {
      "type": "function",
      "name": "recoveryAdmin",
      "constant": true,
      "stateMutability": "view",
      "payable": false,
      "inputs": [],
      "outputs": [
        {
          "type": "address"
        }
      ]
    },
    {
      "type": "function",
      "name": "renounceRole",
      "constant": false,
      "payable": false,
      "inputs": [
        {
          "type": "bytes32",
          "name": "role"
        },
        {
          "type": "address",
          "name": "account"
        }
      ],
      "outputs": []
    },
    {
      "type": "function",
      "name": "revokeRole",
      "constant": false,
      "payable": false,
      "inputs": [
        {
          "type": "bytes32",
          "name": "role"
        },
        {
          "type": "address",
          "name": "account"
        }
      ],
      "outputs": []
    },
    {
      "type": "function",
      "name": "setLosslessAdmin",
      "constant": false,
      "payable": false,
      "inputs": [
        {
          "type": "address",
          "name": "newAdmin"
        }
      ],
      "outputs": []
    },
    {
      "type": "function",
      "name": "supportsInterface",
      "constant": true,
      "stateMutability": "view",
      "payable": false,
      "inputs": [
        {
          "type": "bytes4",
          "name": "interfaceId"
        }
      ],
      "outputs": [
        {
          "type": "bool"
        }
      ]
    },
    {
      "type": "function",
      "name": "symbol",
      "constant": true,
      "stateMutability": "view",
      "payable": false,
      "inputs": [],
      "outputs": [
        {
          "type": "string"
        }
      ]
    },
    {
      "type": "function",
      "name": "timelockPeriod",
      "constant": true,
      "stateMutability": "view",
      "payable": false,
      "inputs": [],
      "outputs": [
        {
          "type": "uint256"
        }
      ]
    },
    {
      "type": "function",
      "name": "totalSupply",
      "constant": true,
      "stateMutability": "view",
      "payable": false,
      "inputs": [],
      "outputs": [
        {
          "type": "uint256"
        }
      ]
    },
    {
      "type": "function",
      "name": "transfer",
      "constant": false,
      "payable": false,
      "inputs": [
        {
          "type": "address",
          "name": "recipient"
        },
        {
          "type": "uint256",
          "name": "amount"
        }
      ],
      "outputs": [
        {
          "type": "bool"
        }
      ]
    },
    {
      "type": "function",
      "name": "transferFrom",
      "constant": false,
      "payable": false,
      "inputs": [
        {
          "type": "address",
          "name": "sender"
        },
        {
          "type": "address",
          "name": "recipient"
        },
        {
          "type": "uint256",
          "name": "amount"
        }
      ],
      "outputs": [
        {
          "type": "bool"
        }
      ]
    },
    {
      "type": "function",
      "name": "transferOutBlacklistedFunds",
      "constant": false,
      "payable": false,
      "inputs": [
        {
          "type": "address[]",
          "name": "from"
        }
      ],
      "outputs": []
    },
    {
      "type": "function",
      "name": "transferRecoveryAdminOwnership",
      "constant": false,
      "payable": false,
      "inputs": [
        {
          "type": "address",
          "name": "candidate"
        },
        {
          "type": "bytes32",
          "name": "keyHash"
        }
      ],
      "outputs": []
    }
  ],
  "transactionHash": "0x71ad9d37992711c09cc8cbadd01f1d67eedb2d035ad8c4d1f7a463e808bc80a8",
  "args": [
    "0xb2de87d2fb7fffe067928a66a003c2b42c12a715",
    "0x981374d3cf4928d46d39e814a5bc4db77cdca92b",
    "86400",
    "0xDBB5125CEEaf7233768c84A5dF570AeECF0b4634",
    "0x21c1e74caadf990e237920d5515955a024031109"
  ],
  "numDeployments": 1,
  "linkedData": "0x6080604052600b805460ff191660011790553480156200001e57600080fd5b506040516200269d3803806200269d833981016040819052620000419162000519565b604051806040016040528060078152602001665361616b75727560c81b8152506040518060400160405280600381526020016229a5a960e91b8152508686868660006001600160a01b0316836001600160a01b03161415620000ef5760405162461bcd60e51b815260206004820152602d60248201526000805160206200267d83398151915260448201526c207a65726f206164647265737360981b60648201526084015b60405180910390fd5b6001600160a01b0384166200014c5760405162461bcd60e51b815260206004820152602d60248201526000805160206200267d83398151915260448201526c207a65726f206164647265737360981b6064820152608401620000e6565b85516200016190600390602089019062000456565b5084516200017790600490602088019062000456565b50600880546001600160a01b038087166001600160a01b03199283161790925560058054928616928216929092179091556006805490911690556000600755611c2082116200020f5760405162461bcd60e51b815260206004820152602e60248201526000805160206200265d83398151915260448201526d067726561746572207468616e20360941b6064820152608401620000e6565b6202a30082106200026b5760405162461bcd60e51b815260206004820152603060248201526000805160206200265d83398151915260448201526f6c657373207468616e2032206461797360801b6064820152608401620000e6565b60098290556000600a556001600160a01b038116620002dd5760405162461bcd60e51b815260206004820152602760248201527f4c45524332303a204c6f73736c6573732063616e6e6f74206265207a65726f206044820152666164647265737360c81b6064820152608401620000e6565b600b8054610100600160a81b0319166101006001600160a01b03938416021790558616151594506200036d93505050505760405162461bcd60e51b815260206004820152602d60248201527f534b52427269646765643a20696e697469616c206f776e65722069732074686560448201526c207a65726f206164647265737360981b6064820152608401620000e6565b6200037a600086620003b1565b620003a67f9f2df0fed2c77648de5860a4cc508cd0818c85b8b8a1ab4ceeef8d981c8956a682620003b1565b5050505050620005bc565b6000828152600c602090815260408083206001600160a01b038516845290915290205460ff1662000452576000828152600c602090815260408083206001600160a01b03851684529091529020805460ff19166001179055620004113390565b6001600160a01b0316816001600160a01b0316837f2f8788117e7eff1d82e926ec794901d17c78024a50270940304540a733656f0d60405160405180910390a45b5050565b82805462000464906200057f565b90600052602060002090601f016020900481019282620004885760008555620004d3565b82601f10620004a357805160ff1916838001178555620004d3565b82800160010185558215620004d3579182015b82811115620004d3578251825591602001919060010190620004b6565b50620004e1929150620004e5565b5090565b5b80821115620004e15760008155600101620004e6565b80516001600160a01b03811681146200051457600080fd5b919050565b600080600080600060a0868803121562000531578081fd5b6200053c86620004fc565b94506200054c60208701620004fc565b9350604086015192506200056360608701620004fc565b91506200057360808701620004fc565b90509295509295909350565b6002810460018216806200059457607f821691505b60208210811415620005b657634e487b7160e01b600052602260045260246000fd5b50919050565b61209180620005cc6000396000f3fe608060405234801561001057600080fd5b50600436106102115760003560e01c806361086b0011610125578063a457c2d7116100ad578063ccfa214f1161007c578063ccfa214f14610465578063d547741f14610472578063d6e242b814610485578063dd62ed3e1461048d578063f851a440146104c657610211565b8063a457c2d714610424578063a9059cbb14610437578063b38fe9571461044a578063b5c228771461045257610211565b806391d14854116100f457806391d14854146103db57806393310ffe146103ee578063936af9111461040157806395d89b4114610414578063a217fddf1461041c57610211565b806361086b00146103855780636e9960c31461038e57806370a082311461039f57806379cc6790146103c857610211565b80632f2ff15d116101a85780633950935111610177578063395093511461033157806340c10f191461034457806342966c68146103575780635b8a194a1461036a5780635f6529a31461037257610211565b80632f2ff15d146102cc578063313ce567146102df57806334f6ebf5146102ee57806336568abe1461031e57610211565b806323b872dd116101e457806323b872dd14610278578063248a9ca31461028b5780632baa3c9e146102ae5780632ecaf675146102c357610211565b806301ffc9a71461021657806306fdde031461023e578063095ea7b31461025357806318160ddd14610266575b600080fd5b610229610224366004611d07565b6104d9565b60405190151581526020015b60405180910390f35b6102466104ec565b6040516102359190611e72565b610229610261366004611c35565b61057e565b6002545b604051908152602001610235565b610229610286366004611bfa565b610616565b61026a610299366004611ccd565b6000908152600c602052604090206001015490565b6102c16102bc366004611bae565b61076f565b005b61026a60095481565b6102c16102da366004611ce5565b610856565b60405160128152602001610235565b600b546103069061010090046001600160a01b031681565b6040516001600160a01b039091168152602001610235565b6102c161032c366004611ce5565b610880565b61022961033f366004611c35565b6108fe565b6102c1610352366004611c35565b6109b6565b6102c1610365366004611ccd565b6109ea565b6102c1610a6f565b600554610306906001600160a01b031681565b61026a600a5481565b6008546001600160a01b0316610306565b61026a6103ad366004611bae565b6001600160a01b031660009081526020819052604090205490565b6102c16103d6366004611c35565b610b32565b6102296103e9366004611ce5565b610c36565b6102c16103fc366004611c35565b610c61565b6102c161040f366004611c5e565b610d0a565b610246610ec4565b61026a600081565b610229610432366004611c35565b610ed3565b610229610445366004611c35565b610ff2565b6102c161107f565b6102c1610460366004611d2f565b61118d565b600b546102299060ff1681565b6102c1610480366004611ce5565b6112ca565b6102c16112ef565b61026a61049b366004611bc8565b6001600160a01b03918216600090815260016020908152604080832093909416825291909152205490565b600854610306906001600160a01b031681565b60006104e48261140b565b90505b919050565b6060600380546104fb90611fb9565b80601f016020809104026020016040519081016040528092919081815260200182805461052790611fb9565b80156105745780601f1061054957610100808354040283529160200191610574565b820191906000526020600020905b81548152906001019060200180831161055757829003601f168201915b5050505050905090565b600b546000908390839060ff161561060057600b5461010090046001600160a01b03166347abf3be6105ad3390565b84846040518463ffffffff1660e01b81526004016105cd93929190611e4e565b600060405180830381600087803b1580156105e757600080fd5b505af11580156105fb573d6000803e3d6000fd5b505050505b61060b338686611440565b506001949350505050565b600b5460009084908490849060ff16156106b857600b5461010090046001600160a01b031663379f5c696106473390565b6040516001600160e01b031960e084901b1681526001600160a01b0391821660048201528187166024820152908516604482015260648101849052608401600060405180830381600087803b15801561069f57600080fd5b505af11580156106b3573d6000803e3d6000fd5b505050505b6001600160a01b0387166000908152600160209081526040808320338452909152902054858110156107425760405162461bcd60e51b815260206004820152602860248201527f45524332303a207472616e7366657220616d6f756e74206578636565647320616044820152676c6c6f77616e636560c01b60648201526084015b60405180910390fd5b61074d8888886114a2565b610761883361075c8985611f5b565b611440565b506001979650505050505050565b6005546001600160a01b0316336001600160a01b0316146107a25760405162461bcd60e51b815260040161073990611ea5565b6008546001600160a01b03828116911614156108005760405162461bcd60e51b815260206004820152601f60248201527f4c45524332303a2043616e6e6f74207365742073616d652061646472657373006044820152606401610739565b6040516001600160a01b038216907f71614071b88dee5e0b2ae578a9dd7b2ebbe9ae832ba419dc0242cd065a290b6c90600090a2600880546001600160a01b0319166001600160a01b0392909216919091179055565b6000828152600c602052604090206001015461087181611668565b61087b8383611675565b505050565b6001600160a01b03811633146108f05760405162461bcd60e51b815260206004820152602f60248201527f416363657373436f6e74726f6c3a2063616e206f6e6c792072656e6f756e636560448201526e103937b632b9903337b91039b2b63360891b6064820152608401610739565b6108fa82826116fb565b5050565b600b546000908390839060ff161561098057600b5461010090046001600160a01b031663cf5961bb61092d3390565b84846040518463ffffffff1660e01b815260040161094d93929190611e4e565b600060405180830381600087803b15801561096757600080fd5b505af115801561097b573d6000803e3d6000fd5b505050505b3360008181526001602090815260408083206001600160a01b038a16845290915290205461060b9190879061075c908890611f24565b7f9f2df0fed2c77648de5860a4cc508cd0818c85b8b8a1ab4ceeef8d981c8956a66109e081611668565b61087b8383611762565b33600b54829060ff1615610a6557600b54604051634a1fefbd60e01b81526001600160a01b0384811660048301526024820184905261010090920490911690634a1fefbd90604401600060405180830381600087803b158015610a4c57600080fd5b505af1158015610a60573d6000803e3d6000fd5b505050505b61087b338461180f565b6005546001600160a01b0316336001600160a01b031614610aa25760405162461bcd60e51b815260040161073990611ea5565b600b5460ff1615610af55760405162461bcd60e51b815260206004820152601b60248201527f4c45524332303a204c6f73736c65737320616c7265616479206f6e00000000006044820152606401610739565b6000600a819055600b805460ff191660011790556040517f1ba3b66404043da8297d0b876fa6464f2cb127edfc6626308046d4503028322b9190a1565b600b548290829060ff1615610bae57600b54604051634a1fefbd60e01b81526001600160a01b0384811660048301526024820184905261010090920490911690634a1fefbd90604401600060405180830381600087803b158015610b9557600080fd5b505af1158015610ba9573d6000803e3d6000fd5b505050505b6000610bba853361049b565b905083811015610c185760405162461bcd60e51b8152602060048201526024808201527f45524332303a206275726e20616d6f756e74206578636565647320616c6c6f77604482015263616e636560e01b6064820152608401610739565b610c258533868403611440565b610c2f858561180f565b5050505050565b6000918252600c602090815260408084206001600160a01b0393909316845291905290205460ff1690565b6005546001600160a01b0316336001600160a01b031614610c945760405162461bcd60e51b815260040161073990611ea5565b6001600160a01b038216610cba5760405162461bcd60e51b815260040161073990611edc565b600680546001600160a01b0319166001600160a01b03841690811790915560078290556040517f6c591da8da2f6e69746d7d9ae61c27ee29fbe303798141b4942ae2aef54274b190600090a25050565b600b5461010090046001600160a01b0316610d223390565b6001600160a01b031614610d785760405162461bcd60e51b815260206004820152601e60248201527f4c45524332303a204f6e6c79206c6f73736c65737320636f6e747261637400006044820152606401610739565b600b5460ff16610dca5760405162461bcd60e51b815260206004820152601760248201527f4c45524332303a204c6f73736c657373206973206f66660000000000000000006044820152606401610739565b806000805b82811015610e89576000858583818110610df957634e487b7160e01b600052603260045260246000fd5b9050602002016020810190610e0e9190611bae565b6001600160a01b03811660009081526020819052604081208054919055909150610e388185611f24565b600b546040518381529195506001600160a01b036101009091048116919084169060008051602061203c8339815191529060200160405180910390a350508080610e8190611ff4565b915050610dcf565b50600b5461010090046001600160a01b031660009081526020819052604081208054839290610eb9908490611f24565b909155505050505050565b6060600480546104fb90611fb9565b600b546000908390839060ff1615610f5557600b5461010090046001600160a01b031663568c75a9610f023390565b84846040518463ffffffff1660e01b8152600401610f2293929190611e4e565b600060405180830381600087803b158015610f3c57600080fd5b505af1158015610f50573d6000803e3d6000fd5b505050505b3360009081526001602090815260408083206001600160a01b038916845290915290205484811015610fd75760405162461bcd60e51b815260206004820152602560248201527f45524332303a2064656372656173656420616c6c6f77616e63652062656c6f77604482015264207a65726f60d81b6064820152608401610739565b610fe6338761075c8885611f5b565b50600195945050505050565b600b546000908390839060ff161561107457600b5461010090046001600160a01b0316631ffb811f6110213390565b84846040518463ffffffff1660e01b815260040161104193929190611e4e565b600060405180830381600087803b15801561105b57600080fd5b505af115801561106f573d6000803e3d6000fd5b505050505b61060b3386866114a2565b6005546001600160a01b0316336001600160a01b0316146110b25760405162461bcd60e51b815260040161073990611ea5565b600a546111015760405162461bcd60e51b815260206004820152601b60248201527f45524332303a205475726e4f6666206e6f742070726f706f73656400000000006044820152606401610739565b42600a5411156111535760405162461bcd60e51b815260206004820152601c60248201527f45524332303a2054696d65206c6f636b20696e2070726f6772657373000000006044820152606401610739565b600b805460ff191690556000600a8190556040517f3eb72350c9c7928d31e9ab450bfff2c159434aa4b82658a7d8eae7f109cb4e7b9190a1565b6006546001600160a01b0316336001600160a01b0316146111f05760405162461bcd60e51b815260206004820152601960248201527f4c45524332303a204d7573742062652063616e646974617465000000000000006044820152606401610739565b600754815160208301201461123d5760405162461bcd60e51b81526020600482015260136024820152724c45524332303a20496e76616c6964206b657960681b6044820152606401610739565b6006546040516001600160a01b03909116907fb94bba6936ec7f75ee931dadf6e1a4d66b43d09b6fa0178fb13df9b77fb5841f90600090a26006546001600160a01b031661129d5760405162461bcd60e51b815260040161073990611edc565b5060068054600580546001600160a01b03199081166001600160a01b038416179091551690556000600755565b6000828152600c60205260409020600101546112e581611668565b61087b83836116fb565b6005546001600160a01b0316336001600160a01b0316146113225760405162461bcd60e51b815260040161073990611ea5565b600a54156113725760405162461bcd60e51b815260206004820181905260248201527f4c45524332303a205475726e4f666620616c72656164792070726f706f7365646044820152606401610739565b600b5460ff166113c45760405162461bcd60e51b815260206004820152601c60248201527f4c45524332303a204c6f73736c65737320616c7265616479206f6666000000006044820152606401610739565b6009546113d19042611f24565b600a8190556040519081527f6ca688e6e3ddd707280140b2bf0106afe883689b6c74e68cbd517576dd9c245a9060200160405180910390a1565b60006001600160e01b03198216637965db0b60e01b14806104e457506301ffc9a760e01b6001600160e01b03198316146104e4565b6001600160a01b0383811660008181526001602090815260408083209487168084529482529182902085905590518481527f8c5be1e5ebec7d5bd14f71427d1e84f3dd0314c0f7b2291e5b200ac8c7c3b92591015b60405180910390a3505050565b6001600160a01b0383166115065760405162461bcd60e51b815260206004820152602560248201527f45524332303a207472616e736665722066726f6d20746865207a65726f206164604482015264647265737360d81b6064820152608401610739565b6001600160a01b0382166115685760405162461bcd60e51b815260206004820152602360248201527f45524332303a207472616e7366657220746f20746865207a65726f206164647260448201526265737360e81b6064820152608401610739565b6001600160a01b038316600090815260208190526040902054818110156115e05760405162461bcd60e51b815260206004820152602660248201527f45524332303a207472616e7366657220616d6f756e7420657863656564732062604482015265616c616e636560d01b6064820152608401610739565b6115ea8282611f5b565b6001600160a01b038086166000908152602081905260408082209390935590851681529081208054849290611620908490611f24565b92505081905550826001600160a01b0316846001600160a01b031660008051602061203c8339815191528460405161165a91815260200190565b60405180910390a350505050565b6116728133611943565b50565b61167f8282610c36565b6108fa576000828152600c602090815260408083206001600160a01b03851684529091529020805460ff191660011790556116b73390565b6001600160a01b0316816001600160a01b0316837f2f8788117e7eff1d82e926ec794901d17c78024a50270940304540a733656f0d60405160405180910390a45050565b6117058282610c36565b156108fa576000828152600c602090815260408083206001600160a01b0385168085529252808320805460ff1916905551339285917ff6391f5c32d9c69d2a47ea670b442974b53935d1edc7fd64eb21e047a839171b9190a45050565b6001600160a01b0382166117b85760405162461bcd60e51b815260206004820152601f60248201527f45524332303a206d696e7420746f20746865207a65726f2061646472657373006044820152606401610739565b80600260008282546117ca9190611f24565b90915550506001600160a01b0382166000818152602081815260408083208054860190555184815260008051602061203c833981519152910160405180910390a35050565b6001600160a01b03821661186f5760405162461bcd60e51b815260206004820152602160248201527f45524332303a206275726e2066726f6d20746865207a65726f206164647265736044820152607360f81b6064820152608401610739565b6001600160a01b038216600090815260208190526040902054818110156118e35760405162461bcd60e51b815260206004820152602260248201527f45524332303a206275726e20616d6f756e7420657863656564732062616c616e604482015261636560f01b6064820152608401610739565b6001600160a01b0383166000908152602081905260408120838303905560028054849290611912908490611f5b565b90915550506040518281526000906001600160a01b0385169060008051602061203c83398151915290602001611495565b61194d8282610c36565b6108fa5761195a8161199c565b6119658360206119ae565b604051602001611976929190611dd9565b60408051601f198184030181529082905262461bcd60e51b825261073991600401611e72565b60606104e46001600160a01b03831660145b606060006119bd836002611f3c565b6119c8906002611f24565b67ffffffffffffffff8111156119ee57634e487b7160e01b600052604160045260246000fd5b6040519080825280601f01601f191660200182016040528015611a18576020820181803683370190505b509050600360fc1b81600081518110611a4157634e487b7160e01b600052603260045260246000fd5b60200101906001600160f81b031916908160001a905350600f60fb1b81600181518110611a7e57634e487b7160e01b600052603260045260246000fd5b60200101906001600160f81b031916908160001a9053506000611aa2846002611f3c565b611aad906001611f24565b90505b6001811115611b41576f181899199a1a9b1b9c1cb0b131b232b360811b85600f1660108110611aef57634e487b7160e01b600052603260045260246000fd5b1a60f81b828281518110611b1357634e487b7160e01b600052603260045260246000fd5b60200101906001600160f81b031916908160001a90535060049490941c93611b3a81611fa2565b9050611ab0565b508315611b905760405162461bcd60e51b815260206004820181905260248201527f537472696e67733a20686578206c656e67746820696e73756666696369656e746044820152606401610739565b9392505050565b80356001600160a01b03811681146104e757600080fd5b600060208284031215611bbf578081fd5b611b9082611b97565b60008060408385031215611bda578081fd5b611be383611b97565b9150611bf160208401611b97565b90509250929050565b600080600060608486031215611c0e578081fd5b611c1784611b97565b9250611c2560208501611b97565b9150604084013590509250925092565b60008060408385031215611c47578182fd5b611c5083611b97565b946020939093013593505050565b60008060208385031215611c70578182fd5b823567ffffffffffffffff80821115611c87578384fd5b818501915085601f830112611c9a578384fd5b813581811115611ca8578485fd5b8660208083028501011115611cbb578485fd5b60209290920196919550909350505050565b600060208284031215611cde578081fd5b5035919050565b60008060408385031215611cf7578182fd5b82359150611bf160208401611b97565b600060208284031215611d18578081fd5b81356001600160e01b031981168114611b90578182fd5b600060208284031215611d40578081fd5b813567ffffffffffffffff80821115611d57578283fd5b818401915084601f830112611d6a578283fd5b813581811115611d7c57611d7c612025565b604051601f8201601f19908116603f01168101908382118183101715611da457611da4612025565b81604052828152876020848701011115611dbc578586fd5b826020860160208301379182016020019490945295945050505050565b60007f416363657373436f6e74726f6c3a206163636f756e742000000000000000000082528351611e11816017850160208801611f72565b7001034b99036b4b9b9b4b733903937b6329607d1b6017918401918201528351611e42816028840160208801611f72565b01602801949350505050565b6001600160a01b039384168152919092166020820152604081019190915260600190565b6000602082528251806020840152611e91816040850160208701611f72565b601f01601f19169190910160400192915050565b6020808252601e908201527f4c45524332303a204d757374206265207265636f766572792061646d696e0000604082015260600190565b60208082526028908201527f4c45524332303a2043616e6469646174652063616e6e6f74206265207a65726f604082015267206164647265737360c01b606082015260800190565b60008219821115611f3757611f3761200f565b500190565b6000816000190483118215151615611f5657611f5661200f565b500290565b600082821015611f6d57611f6d61200f565b500390565b60005b83811015611f8d578181015183820152602001611f75565b83811115611f9c576000848401525b50505050565b600081611fb157611fb161200f565b506000190190565b600281046001821680611fcd57607f821691505b60208210811415611fee57634e487b7160e01b600052602260045260246000fd5b50919050565b60006000198214156120085761200861200f565b5060010190565b634e487b7160e01b600052601160045260246000fd5b634e487b7160e01b600052604160045260246000fdfeddf252ad1be2c89b69c2b068fc378daa952ba7f163c4a11628f55a4df523b3efa26469706673582212209fd7f18a7275a62ac5afe54efc12471b2691136da57e8d4c1e37715bd3170ef164736f6c634300080200334c45524332303a2054696d656c6f636b20706572696f64206d757374206265204c45524332303a205265636f766572792061646d696e2063616e6e6f74206265000000000000000000000000b2de87d2fb7fffe067928a66a003c2b42c12a715000000000000000000000000981374d3cf4928d46d39e814a5bc4db77cdca92b0000000000000000000000000000000000000000000000000000000000015180000000000000000000000000dbb5125ceeaf7233768c84a5df570aeecf0b463400000000000000000000000021c1e74caadf990e237920d5515955a024031109",
  "deployedBytecode": "0x6080604052600b805460ff191660011790553480156200001e57600080fd5b506040516200269d3803806200269d833981016040819052620000419162000519565b604051806040016040528060078152602001665361616b75727560c81b8152506040518060400160405280600381526020016229a5a960e91b8152508686868660006001600160a01b0316836001600160a01b03161415620000ef5760405162461bcd60e51b815260206004820152602d60248201526000805160206200267d83398151915260448201526c207a65726f206164647265737360981b60648201526084015b60405180910390fd5b6001600160a01b0384166200014c5760405162461bcd60e51b815260206004820152602d60248201526000805160206200267d83398151915260448201526c207a65726f206164647265737360981b6064820152608401620000e6565b85516200016190600390602089019062000456565b5084516200017790600490602088019062000456565b50600880546001600160a01b038087166001600160a01b03199283161790925560058054928616928216929092179091556006805490911690556000600755611c2082116200020f5760405162461bcd60e51b815260206004820152602e60248201526000805160206200265d83398151915260448201526d067726561746572207468616e20360941b6064820152608401620000e6565b6202a30082106200026b5760405162461bcd60e51b815260206004820152603060248201526000805160206200265d83398151915260448201526f6c657373207468616e2032206461797360801b6064820152608401620000e6565b60098290556000600a556001600160a01b038116620002dd5760405162461bcd60e51b815260206004820152602760248201527f4c45524332303a204c6f73736c6573732063616e6e6f74206265207a65726f206044820152666164647265737360c81b6064820152608401620000e6565b600b8054610100600160a81b0319166101006001600160a01b03938416021790558616151594506200036d93505050505760405162461bcd60e51b815260206004820152602d60248201527f534b52427269646765643a20696e697469616c206f776e65722069732074686560448201526c207a65726f206164647265737360981b6064820152608401620000e6565b6200037a600086620003b1565b620003a67f9f2df0fed2c77648de5860a4cc508cd0818c85b8b8a1ab4ceeef8d981c8956a682620003b1565b5050505050620005bc565b6000828152600c602090815260408083206001600160a01b038516845290915290205460ff1662000452576000828152600c602090815260408083206001600160a01b03851684529091529020805460ff19166001179055620004113390565b6001600160a01b0316816001600160a01b0316837f2f8788117e7eff1d82e926ec794901d17c78024a50270940304540a733656f0d60405160405180910390a45b5050565b82805462000464906200057f565b90600052602060002090601f016020900481019282620004885760008555620004d3565b82601f10620004a357805160ff1916838001178555620004d3565b82800160010185558215620004d3579182015b82811115620004d3578251825591602001919060010190620004b6565b50620004e1929150620004e5565b5090565b5b80821115620004e15760008155600101620004e6565b80516001600160a01b03811681146200051457600080fd5b919050565b600080600080600060a0868803121562000531578081fd5b6200053c86620004fc565b94506200054c60208701620004fc565b9350604086015192506200056360608701620004fc565b91506200057360808701620004fc565b90509295509295909350565b6002810460018216806200059457607f821691505b60208210811415620005b657634e487b7160e01b600052602260045260246000fd5b50919050565b61209180620005cc6000396000f3fe608060405234801561001057600080fd5b50600436106102115760003560e01c806361086b0011610125578063a457c2d7116100ad578063ccfa214f1161007c578063ccfa214f14610465578063d547741f14610472578063d6e242b814610485578063dd62ed3e1461048d578063f851a440146104c657610211565b8063a457c2d714610424578063a9059cbb14610437578063b38fe9571461044a578063b5c228771461045257610211565b806391d14854116100f457806391d14854146103db57806393310ffe146103ee578063936af9111461040157806395d89b4114610414578063a217fddf1461041c57610211565b806361086b00146103855780636e9960c31461038e57806370a082311461039f57806379cc6790146103c857610211565b80632f2ff15d116101a85780633950935111610177578063395093511461033157806340c10f191461034457806342966c68146103575780635b8a194a1461036a5780635f6529a31461037257610211565b80632f2ff15d146102cc578063313ce567146102df57806334f6ebf5146102ee57806336568abe1461031e57610211565b806323b872dd116101e457806323b872dd14610278578063248a9ca31461028b5780632baa3c9e146102ae5780632ecaf675146102c357610211565b806301ffc9a71461021657806306fdde031461023e578063095ea7b31461025357806318160ddd14610266575b600080fd5b610229610224366004611d07565b6104d9565b60405190151581526020015b60405180910390f35b6102466104ec565b6040516102359190611e72565b610229610261366004611c35565b61057e565b6002545b604051908152602001610235565b610229610286366004611bfa565b610616565b61026a610299366004611ccd565b6000908152600c602052604090206001015490565b6102c16102bc366004611bae565b61076f565b005b61026a60095481565b6102c16102da366004611ce5565b610856565b60405160128152602001610235565b600b546103069061010090046001600160a01b031681565b6040516001600160a01b039091168152602001610235565b6102c161032c366004611ce5565b610880565b61022961033f366004611c35565b6108fe565b6102c1610352366004611c35565b6109b6565b6102c1610365366004611ccd565b6109ea565b6102c1610a6f565b600554610306906001600160a01b031681565b61026a600a5481565b6008546001600160a01b0316610306565b61026a6103ad366004611bae565b6001600160a01b031660009081526020819052604090205490565b6102c16103d6366004611c35565b610b32565b6102296103e9366004611ce5565b610c36565b6102c16103fc366004611c35565b610c61565b6102c161040f366004611c5e565b610d0a565b610246610ec4565b61026a600081565b610229610432366004611c35565b610ed3565b610229610445366004611c35565b610ff2565b6102c161107f565b6102c1610460366004611d2f565b61118d565b600b546102299060ff1681565b6102c1610480366004611ce5565b6112ca565b6102c16112ef565b61026a61049b366004611bc8565b6001600160a01b03918216600090815260016020908152604080832093909416825291909152205490565b600854610306906001600160a01b031681565b60006104e48261140b565b90505b919050565b6060600380546104fb90611fb9565b80601f016020809104026020016040519081016040528092919081815260200182805461052790611fb9565b80156105745780601f1061054957610100808354040283529160200191610574565b820191906000526020600020905b81548152906001019060200180831161055757829003601f168201915b5050505050905090565b600b546000908390839060ff161561060057600b5461010090046001600160a01b03166347abf3be6105ad3390565b84846040518463ffffffff1660e01b81526004016105cd93929190611e4e565b600060405180830381600087803b1580156105e757600080fd5b505af11580156105fb573d6000803e3d6000fd5b505050505b61060b338686611440565b506001949350505050565b600b5460009084908490849060ff16156106b857600b5461010090046001600160a01b031663379f5c696106473390565b6040516001600160e01b031960e084901b1681526001600160a01b0391821660048201528187166024820152908516604482015260648101849052608401600060405180830381600087803b15801561069f57600080fd5b505af11580156106b3573d6000803e3d6000fd5b505050505b6001600160a01b0387166000908152600160209081526040808320338452909152902054858110156107425760405162461bcd60e51b815260206004820152602860248201527f45524332303a207472616e7366657220616d6f756e74206578636565647320616044820152676c6c6f77616e636560c01b60648201526084015b60405180910390fd5b61074d8888886114a2565b610761883361075c8985611f5b565b611440565b506001979650505050505050565b6005546001600160a01b0316336001600160a01b0316146107a25760405162461bcd60e51b815260040161073990611ea5565b6008546001600160a01b03828116911614156108005760405162461bcd60e51b815260206004820152601f60248201527f4c45524332303a2043616e6e6f74207365742073616d652061646472657373006044820152606401610739565b6040516001600160a01b038216907f71614071b88dee5e0b2ae578a9dd7b2ebbe9ae832ba419dc0242cd065a290b6c90600090a2600880546001600160a01b0319166001600160a01b0392909216919091179055565b6000828152600c602052604090206001015461087181611668565b61087b8383611675565b505050565b6001600160a01b03811633146108f05760405162461bcd60e51b815260206004820152602f60248201527f416363657373436f6e74726f6c3a2063616e206f6e6c792072656e6f756e636560448201526e103937b632b9903337b91039b2b63360891b6064820152608401610739565b6108fa82826116fb565b5050565b600b546000908390839060ff161561098057600b5461010090046001600160a01b031663cf5961bb61092d3390565b84846040518463ffffffff1660e01b815260040161094d93929190611e4e565b600060405180830381600087803b15801561096757600080fd5b505af115801561097b573d6000803e3d6000fd5b505050505b3360008181526001602090815260408083206001600160a01b038a16845290915290205461060b9190879061075c908890611f24565b7f9f2df0fed2c77648de5860a4cc508cd0818c85b8b8a1ab4ceeef8d981c8956a66109e081611668565b61087b8383611762565b33600b54829060ff1615610a6557600b54604051634a1fefbd60e01b81526001600160a01b0384811660048301526024820184905261010090920490911690634a1fefbd90604401600060405180830381600087803b158015610a4c57600080fd5b505af1158015610a60573d6000803e3d6000fd5b505050505b61087b338461180f565b6005546001600160a01b0316336001600160a01b031614610aa25760405162461bcd60e51b815260040161073990611ea5565b600b5460ff1615610af55760405162461bcd60e51b815260206004820152601b60248201527f4c45524332303a204c6f73736c65737320616c7265616479206f6e00000000006044820152606401610739565b6000600a819055600b805460ff191660011790556040517f1ba3b66404043da8297d0b876fa6464f2cb127edfc6626308046d4503028322b9190a1565b600b548290829060ff1615610bae57600b54604051634a1fefbd60e01b81526001600160a01b0384811660048301526024820184905261010090920490911690634a1fefbd90604401600060405180830381600087803b158015610b9557600080fd5b505af1158015610ba9573d6000803e3d6000fd5b505050505b6000610bba853361049b565b905083811015610c185760405162461bcd60e51b8152602060048201526024808201527f45524332303a206275726e20616d6f756e74206578636565647320616c6c6f77604482015263616e636560e01b6064820152608401610739565b610c258533868403611440565b610c2f858561180f565b5050505050565b6000918252600c602090815260408084206001600160a01b0393909316845291905290205460ff1690565b6005546001600160a01b0316336001600160a01b031614610c945760405162461bcd60e51b815260040161073990611ea5565b6001600160a01b038216610cba5760405162461bcd60e51b815260040161073990611edc565b600680546001600160a01b0319166001600160a01b03841690811790915560078290556040517f6c591da8da2f6e69746d7d9ae61c27ee29fbe303798141b4942ae2aef54274b190600090a25050565b600b5461010090046001600160a01b0316610d223390565b6001600160a01b031614610d785760405162461bcd60e51b815260206004820152601e60248201527f4c45524332303a204f6e6c79206c6f73736c65737320636f6e747261637400006044820152606401610739565b600b5460ff16610dca5760405162461bcd60e51b815260206004820152601760248201527f4c45524332303a204c6f73736c657373206973206f66660000000000000000006044820152606401610739565b806000805b82811015610e89576000858583818110610df957634e487b7160e01b600052603260045260246000fd5b9050602002016020810190610e0e9190611bae565b6001600160a01b03811660009081526020819052604081208054919055909150610e388185611f24565b600b546040518381529195506001600160a01b036101009091048116919084169060008051602061203c8339815191529060200160405180910390a350508080610e8190611ff4565b915050610dcf565b50600b5461010090046001600160a01b031660009081526020819052604081208054839290610eb9908490611f24565b909155505050505050565b6060600480546104fb90611fb9565b600b546000908390839060ff1615610f5557600b5461010090046001600160a01b031663568c75a9610f023390565b84846040518463ffffffff1660e01b8152600401610f2293929190611e4e565b600060405180830381600087803b158015610f3c57600080fd5b505af1158015610f50573d6000803e3d6000fd5b505050505b3360009081526001602090815260408083206001600160a01b038916845290915290205484811015610fd75760405162461bcd60e51b815260206004820152602560248201527f45524332303a2064656372656173656420616c6c6f77616e63652062656c6f77604482015264207a65726f60d81b6064820152608401610739565b610fe6338761075c8885611f5b565b50600195945050505050565b600b546000908390839060ff161561107457600b5461010090046001600160a01b0316631ffb811f6110213390565b84846040518463ffffffff1660e01b815260040161104193929190611e4e565b600060405180830381600087803b15801561105b57600080fd5b505af115801561106f573d6000803e3d6000fd5b505050505b61060b3386866114a2565b6005546001600160a01b0316336001600160a01b0316146110b25760405162461bcd60e51b815260040161073990611ea5565b600a546111015760405162461bcd60e51b815260206004820152601b60248201527f45524332303a205475726e4f6666206e6f742070726f706f73656400000000006044820152606401610739565b42600a5411156111535760405162461bcd60e51b815260206004820152601c60248201527f45524332303a2054696d65206c6f636b20696e2070726f6772657373000000006044820152606401610739565b600b805460ff191690556000600a8190556040517f3eb72350c9c7928d31e9ab450bfff2c159434aa4b82658a7d8eae7f109cb4e7b9190a1565b6006546001600160a01b0316336001600160a01b0316146111f05760405162461bcd60e51b815260206004820152601960248201527f4c45524332303a204d7573742062652063616e646974617465000000000000006044820152606401610739565b600754815160208301201461123d5760405162461bcd60e51b81526020600482015260136024820152724c45524332303a20496e76616c6964206b657960681b6044820152606401610739565b6006546040516001600160a01b03909116907fb94bba6936ec7f75ee931dadf6e1a4d66b43d09b6fa0178fb13df9b77fb5841f90600090a26006546001600160a01b031661129d5760405162461bcd60e51b815260040161073990611edc565b5060068054600580546001600160a01b03199081166001600160a01b038416179091551690556000600755565b6000828152600c60205260409020600101546112e581611668565b61087b83836116fb565b6005546001600160a01b0316336001600160a01b0316146113225760405162461bcd60e51b815260040161073990611ea5565b600a54156113725760405162461bcd60e51b815260206004820181905260248201527f4c45524332303a205475726e4f666620616c72656164792070726f706f7365646044820152606401610739565b600b5460ff166113c45760405162461bcd60e51b815260206004820152601c60248201527f4c45524332303a204c6f73736c65737320616c7265616479206f6666000000006044820152606401610739565b6009546113d19042611f24565b600a8190556040519081527f6ca688e6e3ddd707280140b2bf0106afe883689b6c74e68cbd517576dd9c245a9060200160405180910390a1565b60006001600160e01b03198216637965db0b60e01b14806104e457506301ffc9a760e01b6001600160e01b03198316146104e4565b6001600160a01b0383811660008181526001602090815260408083209487168084529482529182902085905590518481527f8c5be1e5ebec7d5bd14f71427d1e84f3dd0314c0f7b2291e5b200ac8c7c3b92591015b60405180910390a3505050565b6001600160a01b0383166115065760405162461bcd60e51b815260206004820152602560248201527f45524332303a207472616e736665722066726f6d20746865207a65726f206164604482015264647265737360d81b6064820152608401610739565b6001600160a01b0382166115685760405162461bcd60e51b815260206004820152602360248201527f45524332303a207472616e7366657220746f20746865207a65726f206164647260448201526265737360e81b6064820152608401610739565b6001600160a01b038316600090815260208190526040902054818110156115e05760405162461bcd60e51b815260206004820152602660248201527f45524332303a207472616e7366657220616d6f756e7420657863656564732062604482015265616c616e636560d01b6064820152608401610739565b6115ea8282611f5b565b6001600160a01b038086166000908152602081905260408082209390935590851681529081208054849290611620908490611f24565b92505081905550826001600160a01b0316846001600160a01b031660008051602061203c8339815191528460405161165a91815260200190565b60405180910390a350505050565b6116728133611943565b50565b61167f8282610c36565b6108fa576000828152600c602090815260408083206001600160a01b03851684529091529020805460ff191660011790556116b73390565b6001600160a01b0316816001600160a01b0316837f2f8788117e7eff1d82e926ec794901d17c78024a50270940304540a733656f0d60405160405180910390a45050565b6117058282610c36565b156108fa576000828152600c602090815260408083206001600160a01b0385168085529252808320805460ff1916905551339285917ff6391f5c32d9c69d2a47ea670b442974b53935d1edc7fd64eb21e047a839171b9190a45050565b6001600160a01b0382166117b85760405162461bcd60e51b815260206004820152601f60248201527f45524332303a206d696e7420746f20746865207a65726f2061646472657373006044820152606401610739565b80600260008282546117ca9190611f24565b90915550506001600160a01b0382166000818152602081815260408083208054860190555184815260008051602061203c833981519152910160405180910390a35050565b6001600160a01b03821661186f5760405162461bcd60e51b815260206004820152602160248201527f45524332303a206275726e2066726f6d20746865207a65726f206164647265736044820152607360f81b6064820152608401610739565b6001600160a01b038216600090815260208190526040902054818110156118e35760405162461bcd60e51b815260206004820152602260248201527f45524332303a206275726e20616d6f756e7420657863656564732062616c616e604482015261636560f01b6064820152608401610739565b6001600160a01b0383166000908152602081905260408120838303905560028054849290611912908490611f5b565b90915550506040518281526000906001600160a01b0385169060008051602061203c83398151915290602001611495565b61194d8282610c36565b6108fa5761195a8161199c565b6119658360206119ae565b604051602001611976929190611dd9565b60408051601f198184030181529082905262461bcd60e51b825261073991600401611e72565b60606104e46001600160a01b03831660145b606060006119bd836002611f3c565b6119c8906002611f24565b67ffffffffffffffff8111156119ee57634e487b7160e01b600052604160045260246000fd5b6040519080825280601f01601f191660200182016040528015611a18576020820181803683370190505b509050600360fc1b81600081518110611a4157634e487b7160e01b600052603260045260246000fd5b60200101906001600160f81b031916908160001a905350600f60fb1b81600181518110611a7e57634e487b7160e01b600052603260045260246000fd5b60200101906001600160f81b031916908160001a9053506000611aa2846002611f3c565b611aad906001611f24565b90505b6001811115611b41576f181899199a1a9b1b9c1cb0b131b232b360811b85600f1660108110611aef57634e487b7160e01b600052603260045260246000fd5b1a60f81b828281518110611b1357634e487b7160e01b600052603260045260246000fd5b60200101906001600160f81b031916908160001a90535060049490941c93611b3a81611fa2565b9050611ab0565b508315611b905760405162461bcd60e51b815260206004820181905260248201527f537472696e67733a20686578206c656e67746820696e73756666696369656e746044820152606401610739565b9392505050565b80356001600160a01b03811681146104e757600080fd5b600060208284031215611bbf578081fd5b611b9082611b97565b60008060408385031215611bda578081fd5b611be383611b97565b9150611bf160208401611b97565b90509250929050565b600080600060608486031215611c0e578081fd5b611c1784611b97565b9250611c2560208501611b97565b9150604084013590509250925092565b60008060408385031215611c47578182fd5b611c5083611b97565b946020939093013593505050565b60008060208385031215611c70578182fd5b823567ffffffffffffffff80821115611c87578384fd5b818501915085601f830112611c9a578384fd5b813581811115611ca8578485fd5b8660208083028501011115611cbb578485fd5b60209290920196919550909350505050565b600060208284031215611cde578081fd5b5035919050565b60008060408385031215611cf7578182fd5b82359150611bf160208401611b97565b600060208284031215611d18578081fd5b81356001600160e01b031981168114611b90578182fd5b600060208284031215611d40578081fd5b813567ffffffffffffffff80821115611d57578283fd5b818401915084601f830112611d6a578283fd5b813581811115611d7c57611d7c612025565b604051601f8201601f19908116603f01168101908382118183101715611da457611da4612025565b81604052828152876020848701011115611dbc578586fd5b826020860160208301379182016020019490945295945050505050565b60007f416363657373436f6e74726f6c3a206163636f756e742000000000000000000082528351611e11816017850160208801611f72565b7001034b99036b4b9b9b4b733903937b6329607d1b6017918401918201528351611e42816028840160208801611f72565b01602801949350505050565b6001600160a01b039384168152919092166020820152604081019190915260600190565b6000602082528251806020840152611e91816040850160208701611f72565b601f01601f19169190910160400192915050565b6020808252601e908201527f4c45524332303a204d757374206265207265636f766572792061646d696e0000604082015260600190565b60208082526028908201527f4c45524332303a2043616e6469646174652063616e6e6f74206265207a65726f604082015267206164647265737360c01b606082015260800190565b60008219821115611f3757611f3761200f565b500190565b6000816000190483118215151615611f5657611f5661200f565b500290565b600082821015611f6d57611f6d61200f565b500390565b60005b83811015611f8d578181015183820152602001611f75565b83811115611f9c576000848401525b50505050565b600081611fb157611fb161200f565b506000190190565b600281046001821680611fcd57607f821691505b60208210811415611fee57634e487b7160e01b600052602260045260246000fd5b50919050565b60006000198214156120085761200861200f565b5060010190565b634e487b7160e01b600052601160045260246000fd5b634e487b7160e01b600052604160045260246000fdfeddf252ad1be2c89b69c2b068fc378daa952ba7f163c4a11628f55a4df523b3efa26469706673582212209fd7f18a7275a62ac5afe54efc12471b2691136da57e8d4c1e37715bd3170ef164736f6c634300080200334c45524332303a2054696d656c6f636b20706572696f64206d757374206265204c45524332303a205265636f766572792061646d696e2063616e6e6f74206265"
}