{
  "address": "0xE4E7F8b1F09446Ad9395531E861e0b1467a82Eb3",
  "abi": [
    {
      "inputs": [],
      "stateMutability": "nonpayable",
      "type": "constructor"
    },
    {
      "anonymous": false,
      "inputs": [
        {
          "indexed": false,
          "internalType": "bytes32",
          "name": "salt",
          "type": "bytes32"
        },
        {
          "indexed": false,
          "internalType": "address",
          "name": "deployment",
          "type": "address"
        }
      ],
      "name": "ContractDeploy",
      "type": "event"
    },
    {
      "anonymous": false,
      "inputs": [
        {
          "indexed": true,
          "internalType": "address",
          "name": "user",
          "type": "address"
        },
        {
          "indexed": true,
          "internalType": "address",
          "name": "newOwner",
          "type": "address"
        }
      ],
      "name": "OwnershipTransferred",
      "type": "event"
    },
    {
      "inputs": [
        {
          "internalType": "bytes",
          "name": "creationCode",
          "type": "bytes"
        },
        {
          "internalType": "bytes32",
          "name": "salt",
          "type": "bytes32"
        }
      ],
      "name": "deploy",
      "outputs": [],
      "stateMutability": "nonpayable",
      "type": "function"
    },
    {
      "inputs": [],
      "name": "owner",
      "outputs": [
        {
          "internalType": "address",
          "name": "",
          "type": "address"
        }
      ],
      "stateMutability": "view",
      "type": "function"
    },
    {
      "inputs": [
        {
          "internalType": "address",
          "name": "newOwner",
          "type": "address"
        }
      ],
      "name": "transferOwnership",
      "outputs": [],
      "stateMutability": "nonpayable",
      "type": "function"
    }
  ],
  "transactionHash": "0x871fef5ca0796da383111826cd5b61b7f26b6af21e548df178e582b140b771fd",
  "args": [],
  "numDeployments": 1,
  "solcInputHash": "9edf331bb0044f6b6297abf6ffefc0a1",
  "bytecode": "0x608060405234801561001057600080fd5b50600080546001600160a01b031916339081178255604051909182917f8be0079c531659141344cd1fd0a4f28419497f9722a3daafe3b4186f6b6457e0908290a350610575806100616000396000f3fe608060405234801561001057600080fd5b50600436106100415760003560e01c80634af63f02146100465780638da5cb5b1461005b578063f2fde38b1461008a575b600080fd5b61005961005436600461043e565b61009d565b005b60005461006e906001600160a01b031681565b6040516001600160a01b03909116815260200160405180910390f35b610059610098366004610417565b610142565b6000546001600160a01b031633146100eb5760405162461bcd60e51b815260206004820152600c60248201526b15539055551213d49256915160a21b60448201526064015b60405180910390fd5b60006100f9828460006101d6565b604080518481526001600160a01b03831660208201529192507f20f40d02291c6ca45143cb1aeb5a579af785a81379409259786a25d1f2a19bd6910160405180910390a1505050565b6000546001600160a01b0316331461018b5760405162461bcd60e51b815260206004820152600c60248201526b15539055551213d49256915160a21b60448201526064016100e2565b600080546001600160a01b0319166001600160a01b0383169081178255604051909133917f8be0079c531659141344cd1fd0a4f28419497f9722a3daafe3b4186f6b6457e09190a350565b6000806040518060400160405280601081526020016f67363d3d37363d34f03d5260086018f360801b81525090506000858251602084016000f590506001600160a01b03811661025c5760405162461bcd60e51b81526020600482015260116024820152701111541313d65351539517d19052531151607a1b60448201526064016100e2565b6102658661032c565b92506000816001600160a01b0316858760405161028291906104f0565b60006040518083038185875af1925050503d80600081146102bf576040519150601f19603f3d011682016040523d82523d6000602084013e6102c4565b606091505b505090508080156102de57506001600160a01b0384163b15155b6103225760405162461bcd60e51b815260206004820152601560248201527412539255125053125690551253d397d19052531151605a1b60448201526064016100e2565b5050509392505050565b604080518082018252601081526f67363d3d37363d34f03d5260086018f360801b60209182015290516001600160f81b0319918101919091526bffffffffffffffffffffffff193060601b166021820152603581018290527f21c35dbe1b344a2488cf3321d6ce542f8e9f305544ff09e4993a62319a497c1f605582015260009081906103d0906075015b6040516020818303038152906040528051906020012090565b6040516135a560f21b60208201526bffffffffffffffffffffffff19606083901b166022820152600160f81b6036820152909150610410906037016103b7565b9392505050565b600060208284031215610428578081fd5b81356001600160a01b0381168114610410578182fd5b60008060408385031215610450578081fd5b823567ffffffffffffffff80821115610467578283fd5b818501915085601f83011261047a578283fd5b81358181111561048c5761048c610529565b604051601f8201601f19908116603f011681019083821181831017156104b4576104b4610529565b816040528281528860208487010111156104cc578586fd5b82602086016020830137918201602090810195909552509694909201359450505050565b60008251815b8181101561051057602081860181015185830152016104f6565b8181111561051e5782828501525b509190910192915050565b634e487b7160e01b600052604160045260246000fdfea2646970667358221220a8b2774f34c8301fe4a0f81f2e46be755531d1222135f20f5493c31edb89e8ef64736f6c63430008020033",
  "devdoc": {
    "kind": "dev",
    "methods": {},
    "version": 1
  },
  "userdoc": {
    "kind": "user",
    "methods": {},
    "version": 1
  },
  "storageLayout": {
    "storage": [
      {
        "astId": 55,
        "contract": "contracts/DeployerContract.sol:DeployerContract",
        "label": "owner",
        "offset": 0,
        "slot": "0",
        "type": "t_address"
      }
    ],
    "types": {
      "t_address": {
        "encoding": "inplace",
        "label": "address",
        "numberOfBytes": "20"
      }
    }
  }
}