{
  "address": "0xe2dCA969624795985F2f083BcD0b674337ba130a",
  "abi": [
    {
      "type": "constructor",
      "payable": false,
      "inputs": [
        {
          "type": "address",
          "name": "admin_"
        },
        {
          "type": "address",
          "name": "recoveryAdmin_"
        },
        {
          "type": "uint256",
          "name": "timelockPeriod_"
        },
        {
          "type": "address",
          "name": "lossless_"
        }
      ]
    },
    {
      "type": "event",
      "anonymous": false,
      "name": "Approval",
      "inputs": [
        {
          "type": "address",
          "name": "_owner",
          "indexed": true
        },
        {
          "type": "address",
          "name": "_spender",
          "indexed": true
        },
        {
          "type": "uint256",
          "name": "_value",
          "indexed": false
        }
      ]
    },
    {
      "type": "event",
      "anonymous": false,
      "name": "LosslessOff",
      "inputs": []
    },
    {
      "type": "event",
      "anonymous": false,
      "name": "LosslessOn",
      "inputs": []
    },
    {
      "type": "event",
      "anonymous": false,
      "name": "LosslessTurnOffProposal",
      "inputs": [
        {
          "type": "uint256",
          "name": "_turnOffDate",
          "indexed": false
        }
      ]
    },
    {
      "type": "event",
      "anonymous": false,
      "name": "NewAdmin",
      "inputs": [
        {
          "type": "address",
          "name": "_newAdmin",
          "indexed": true
        }
      ]
    },
    {
      "type": "event",
      "anonymous": false,
      "name": "NewRecoveryAdmin",
      "inputs": [
        {
          "type": "address",
          "name": "_newAdmin",
          "indexed": true
        }
      ]
    },
    {
      "type": "event",
      "anonymous": false,
      "name": "NewRecoveryAdminProposal",
      "inputs": [
        {
          "type": "address",
          "name": "_candidate",
          "indexed": true
        }
      ]
    },
    {
      "type": "event",
      "anonymous": false,
      "name": "Transfer",
      "inputs": [
        {
          "type": "address",
          "name": "_from",
          "indexed": true
        },
        {
          "type": "address",
          "name": "_to",
          "indexed": true
        },
        {
          "type": "uint256",
          "name": "_value",
          "indexed": false
        }
      ]
    },
    {
      "type": "function",
      "name": "acceptRecoveryAdminOwnership",
      "constant": false,
      "payable": false,
      "inputs": [
        {
          "type": "bytes",
          "name": "key"
        }
      ],
      "outputs": []
    },
    {
      "type": "function",
      "name": "admin",
      "constant": true,
      "stateMutability": "view",
      "payable": false,
      "inputs": [],
      "outputs": [
        {
          "type": "address"
        }
      ]
    },
    {
      "type": "function",
      "name": "allowance",
      "constant": true,
      "stateMutability": "view",
      "payable": false,
      "inputs": [
        {
          "type": "address",
          "name": "owner"
        },
        {
          "type": "address",
          "name": "spender"
        }
      ],
      "outputs": [
        {
          "type": "uint256"
        }
      ]
    },
    {
      "type": "function",
      "name": "approve",
      "constant": false,
      "payable": false,
      "inputs": [
        {
          "type": "address",
          "name": "spender"
        },
        {
          "type": "uint256",
          "name": "amount"
        }
      ],
      "outputs": [
        {
          "type": "bool"
        }
      ]
    },
    {
      "type": "function",
      "name": "balanceOf",
      "constant": true,
      "stateMutability": "view",
      "payable": false,
      "inputs": [
        {
          "type": "address",
          "name": "account"
        }
      ],
      "outputs": [
        {
          "type": "uint256"
        }
      ]
    },
    {
      "type": "function",
      "name": "burn",
      "constant": false,
      "payable": false,
      "inputs": [
        {
          "type": "uint256",
          "name": "amount"
        }
      ],
      "outputs": []
    },
    {
      "type": "function",
      "name": "burnFrom",
      "constant": false,
      "payable": false,
      "inputs": [
        {
          "type": "address",
          "name": "account"
        },
        {
          "type": "uint256",
          "name": "amount"
        }
      ],
      "outputs": []
    },
    {
      "type": "function",
      "name": "decimals",
      "constant": true,
      "stateMutability": "view",
      "payable": false,
      "inputs": [],
      "outputs": [
        {
          "type": "uint8"
        }
      ]
    },
    {
      "type": "function",
      "name": "decreaseAllowance",
      "constant": false,
      "payable": false,
      "inputs": [
        {
          "type": "address",
          "name": "spender"
        },
        {
          "type": "uint256",
          "name": "subtractedValue"
        }
      ],
      "outputs": [
        {
          "type": "bool"
        }
      ]
    },
    {
      "type": "function",
      "name": "executeLosslessTurnOff",
      "constant": false,
      "payable": false,
      "inputs": [],
      "outputs": []
    },
    {
      "type": "function",
      "name": "executeLosslessTurnOn",
      "constant": false,
      "payable": false,
      "inputs": [],
      "outputs": []
    },
    {
      "type": "function",
      "name": "getAdmin",
      "constant": true,
      "stateMutability": "view",
      "payable": false,
      "inputs": [],
      "outputs": [
        {
          "type": "address"
        }
      ]
    },
    {
      "type": "function",
      "name": "increaseAllowance",
      "constant": false,
      "payable": false,
      "inputs": [
        {
          "type": "address",
          "name": "spender"
        },
        {
          "type": "uint256",
          "name": "addedValue"
        }
      ],
      "outputs": [
        {
          "type": "bool"
        }
      ]
    },
    {
      "type": "function",
      "name": "isLosslessOn",
      "constant": true,
      "stateMutability": "view",
      "payable": false,
      "inputs": [],
      "outputs": [
        {
          "type": "bool"
        }
      ]
    },
    {
      "type": "function",
      "name": "lossless",
      "constant": true,
      "stateMutability": "view",
      "payable": false,
      "inputs": [],
      "outputs": [
        {
          "type": "address"
        }
      ]
    },
    {
      "type": "function",
      "name": "losslessTurnOffTimestamp",
      "constant": true,
      "stateMutability": "view",
      "payable": false,
      "inputs": [],
      "outputs": [
        {
          "type": "uint256"
        }
      ]
    },
    {
      "type": "function",
      "name": "name",
      "constant": true,
      "stateMutability": "view",
      "payable": false,
      "inputs": [],
      "outputs": [
        {
          "type": "string"
        }
      ]
    },
    {
      "type": "function",
      "name": "proposeLosslessTurnOff",
      "constant": false,
      "payable": false,
      "inputs": [],
      "outputs": []
    },
    {
      "type": "function",
      "name": "recoveryAdmin",
      "constant": true,
      "stateMutability": "view",
      "payable": false,
      "inputs": [],
      "outputs": [
        {
          "type": "address"
        }
      ]
    },
    {
      "type": "function",
      "name": "setLosslessAdmin",
      "constant": false,
      "payable": false,
      "inputs": [
        {
          "type": "address",
          "name": "newAdmin"
        }
      ],
      "outputs": []
    },
    {
      "type": "function",
      "name": "supportsInterface",
      "constant": true,
      "stateMutability": "view",
      "payable": false,
      "inputs": [
        {
          "type": "bytes4",
          "name": "interfaceId"
        }
      ],
      "outputs": [
        {
          "type": "bool"
        }
      ]
    },
    {
      "type": "function",
      "name": "symbol",
      "constant": true,
      "stateMutability": "view",
      "payable": false,
      "inputs": [],
      "outputs": [
        {
          "type": "string"
        }
      ]
    },
    {
      "type": "function",
      "name": "timelockPeriod",
      "constant": true,
      "stateMutability": "view",
      "payable": false,
      "inputs": [],
      "outputs": [
        {
          "type": "uint256"
        }
      ]
    },
    {
      "type": "function",
      "name": "totalSupply",
      "constant": true,
      "stateMutability": "view",
      "payable": false,
      "inputs": [],
      "outputs": [
        {
          "type": "uint256"
        }
      ]
    },
    {
      "type": "function",
      "name": "transfer",
      "constant": false,
      "payable": false,
      "inputs": [
        {
          "type": "address",
          "name": "recipient"
        },
        {
          "type": "uint256",
          "name": "amount"
        }
      ],
      "outputs": [
        {
          "type": "bool"
        }
      ]
    },
    {
      "type": "function",
      "name": "transferFrom",
      "constant": false,
      "payable": false,
      "inputs": [
        {
          "type": "address",
          "name": "sender"
        },
        {
          "type": "address",
          "name": "recipient"
        },
        {
          "type": "uint256",
          "name": "amount"
        }
      ],
      "outputs": [
        {
          "type": "bool"
        }
      ]
    },
    {
      "type": "function",
      "name": "transferOutBlacklistedFunds",
      "constant": false,
      "payable": false,
      "inputs": [
        {
          "type": "address[]",
          "name": "from"
        }
      ],
      "outputs": []
    },
    {
      "type": "function",
      "name": "transferRecoveryAdminOwnership",
      "constant": false,
      "payable": false,
      "inputs": [
        {
          "type": "address",
          "name": "candidate"
        },
        {
          "type": "bytes32",
          "name": "keyHash"
        }
      ],
      "outputs": []
    }
  ],
  "transactionHash": "0x8ec41c41bd4332c0a0ddbd3bf81f1d6e9333a0bfb12e9ffcaec89a041fff81bf",
  "args": [
    "0x57fb3A4205dcdFaE514d13c211D6C8c08Be58E86",
    "0x53745Cc2c6Dc4B1468F41D286Cd1AAb7aa7a1B81",
    "86400",
    "0x38D40f5c8375F84C5B90bc460A94a436D09133fB"
  ],
  "numDeployments": 1,
  "linkedData": "0x6080604052600b805460ff191660011790553480156200001e57600080fd5b5060405162001f8138038062001f818339810160408190526200004191620004b3565b604051806040016040528060078152602001665361616b75727560c81b8152506040518060400160405280600381526020016229a5a960e91b8152508585858560006001600160a01b0316836001600160a01b03161415620000ef5760405162461bcd60e51b815260206004820152602d602482015260008051602062001f6183398151915260448201526c207a65726f206164647265737360981b60648201526084015b60405180910390fd5b6001600160a01b0384166200014c5760405162461bcd60e51b815260206004820152602d602482015260008051602062001f6183398151915260448201526c207a65726f206164647265737360981b6064820152608401620000e6565b855162000161906003906020890190620003f0565b50845162000177906004906020880190620003f0565b50600880546001600160a01b038087166001600160a01b03199283161790925560058054928616928216929092179091556006805490911690556000600755611c2082116200020f5760405162461bcd60e51b815260206004820152602e602482015260008051602062001f4183398151915260448201526d067726561746572207468616e20360941b6064820152608401620000e6565b6202a30082106200026b5760405162461bcd60e51b8152602060048201526030602482015260008051602062001f4183398151915260448201526f6c657373207468616e2032206461797360801b6064820152608401620000e6565b60098290556000600a556001600160a01b038116620002dd5760405162461bcd60e51b815260206004820152602760248201527f4c45524332303a204c6f73736c6573732063616e6e6f74206265207a65726f206044820152666164647265737360c81b6064820152608401620000e6565b600b80546001600160a01b0390921661010002610100600160a81b0319909216919091179055506200032393508692506b033b2e3c9fd0803ce80000009150506200032d565b5050505062000568565b6001600160a01b038216620003855760405162461bcd60e51b815260206004820152601f60248201527f45524332303a206d696e7420746f20746865207a65726f2061646472657373006044820152606401620000e6565b806002600082825462000399919062000506565b90915550506001600160a01b038216600081815260208181526040808320805486019055518481527fddf252ad1be2c89b69c2b068fc378daa952ba7f163c4a11628f55a4df523b3ef910160405180910390a35050565b828054620003fe906200052b565b90600052602060002090601f0160209004810192826200042257600085556200046d565b82601f106200043d57805160ff19168380011785556200046d565b828001600101855582156200046d579182015b828111156200046d57825182559160200191906001019062000450565b506200047b9291506200047f565b5090565b5b808211156200047b576000815560010162000480565b80516001600160a01b0381168114620004ae57600080fd5b919050565b60008060008060808587031215620004c9578384fd5b620004d48562000496565b9350620004e46020860162000496565b925060408501519150620004fb6060860162000496565b905092959194509250565b600082198211156200052657634e487b7160e01b81526011600452602481fd5b500190565b6002810460018216806200054057607f821691505b602082108114156200056257634e487b7160e01b600052602260045260246000fd5b50919050565b6119c980620005786000396000f3fe608060405234801561001057600080fd5b50600436106101c45760003560e01c80636e9960c3116100f9578063a9059cbb11610097578063ccfa214f11610071578063ccfa214f146103a1578063d6e242b8146103ae578063dd62ed3e146103b6578063f851a440146103ef576101c4565b8063a9059cbb14610373578063b38fe95714610386578063b5c228771461038e576101c4565b806393310ffe116100d357806393310ffe14610332578063936af9111461034557806395d89b4114610358578063a457c2d714610360576101c4565b80636e9960c3146102e557806370a08231146102f657806379cc67901461031f576101c4565b8063313ce5671161016657806342966c681161014057806342966c68146102ae5780635b8a194a146102c15780635f6529a3146102c957806361086b00146102dc576101c4565b8063313ce5671461025c57806334f6ebf51461026b578063395093511461029b576101c4565b806318160ddd116101a257806318160ddd1461021957806323b872dd1461022b5780632baa3c9e1461023e5780632ecaf67514610253576101c4565b806301ffc9a7146101c957806306fdde03146101f1578063095ea7b314610206575b600080fd5b6101dc6101d7366004611702565b610402565b60405190151581526020015b60405180910390f35b6101f961043b565b6040516101e89190611810565b6101dc61021436600461166a565b6104cd565b6002545b6040519081526020016101e8565b6101dc61023936600461162f565b610565565b61025161024c3660046115dc565b6106be565b005b61021d60095481565b604051601281526020016101e8565b600b546102839061010090046001600160a01b031681565b6040516001600160a01b0390911681526020016101e8565b6101dc6102a936600461166a565b6107a5565b6102516102bc3660046117d4565b61085d565b6102516108e7565b600554610283906001600160a01b031681565b61021d600a5481565b6008546001600160a01b0316610283565b61021d6103043660046115dc565b6001600160a01b031660009081526020819052604090205490565b61025161032d36600461166a565b6109aa565b61025161034036600461166a565b610aae565b610251610353366004611693565b610b57565b6101f9610d23565b6101dc61036e36600461166a565b610d32565b6101dc61038136600461166a565b610e51565b610251610ede565b61025161039c36600461172a565b610fec565b600b546101dc9060ff1681565b610251611129565b61021d6103c43660046115fd565b6001600160a01b03918216600090815260016020908152604080832093909416825291909152205490565b600854610283906001600160a01b031681565b60006001600160e01b031982166336372b0760e01b148061043357506001600160e01b03198216630fcd53a160e21b145b90505b919050565b60606003805461044a90611911565b80601f016020809104026020016040519081016040528092919081815260200182805461047690611911565b80156104c35780601f10610498576101008083540402835291602001916104c3565b820191906000526020600020905b8154815290600101906020018083116104a657829003601f168201915b5050505050905090565b600b546000908390839060ff161561054f57600b5461010090046001600160a01b03166347abf3be6104fc3390565b84846040518463ffffffff1660e01b815260040161051c939291906117ec565b600060405180830381600087803b15801561053657600080fd5b505af115801561054a573d6000803e3d6000fd5b505050505b61055a338686611245565b506001949350505050565b600b5460009084908490849060ff161561060757600b5461010090046001600160a01b031663379f5c696105963390565b6040516001600160e01b031960e084901b1681526001600160a01b0391821660048201528187166024820152908516604482015260648101849052608401600060405180830381600087803b1580156105ee57600080fd5b505af1158015610602573d6000803e3d6000fd5b505050505b6001600160a01b0387166000908152600160209081526040808320338452909152902054858110156106915760405162461bcd60e51b815260206004820152602860248201527f45524332303a207472616e7366657220616d6f756e74206578636565647320616044820152676c6c6f77616e636560c01b60648201526084015b60405180910390fd5b61069c8888886112a7565b6106b088336106ab89856118fa565b611245565b506001979650505050505050565b6005546001600160a01b0316336001600160a01b0316146106f15760405162461bcd60e51b815260040161068890611863565b6008546001600160a01b038281169116141561074f5760405162461bcd60e51b815260206004820152601f60248201527f4c45524332303a2043616e6e6f74207365742073616d652061646472657373006044820152606401610688565b6040516001600160a01b038216907f71614071b88dee5e0b2ae578a9dd7b2ebbe9ae832ba419dc0242cd065a290b6c90600090a2600880546001600160a01b0319166001600160a01b0392909216919091179055565b600b546000908390839060ff161561082757600b5461010090046001600160a01b031663cf5961bb6107d43390565b84846040518463ffffffff1660e01b81526004016107f4939291906117ec565b600060405180830381600087803b15801561080e57600080fd5b505af1158015610822573d6000803e3d6000fd5b505050505b3360008181526001602090815260408083206001600160a01b038a16845290915290205461055a919087906106ab9088906118e2565b33600b54829060ff16156108d857600b54604051634a1fefbd60e01b81526001600160a01b0384811660048301526024820184905261010090920490911690634a1fefbd90604401600060405180830381600087803b1580156108bf57600080fd5b505af11580156108d3573d6000803e3d6000fd5b505050505b6108e2338461147f565b505050565b6005546001600160a01b0316336001600160a01b03161461091a5760405162461bcd60e51b815260040161068890611863565b600b5460ff161561096d5760405162461bcd60e51b815260206004820152601b60248201527f4c45524332303a204c6f73736c65737320616c7265616479206f6e00000000006044820152606401610688565b6000600a819055600b805460ff191660011790556040517f1ba3b66404043da8297d0b876fa6464f2cb127edfc6626308046d4503028322b9190a1565b600b548290829060ff1615610a2657600b54604051634a1fefbd60e01b81526001600160a01b0384811660048301526024820184905261010090920490911690634a1fefbd90604401600060405180830381600087803b158015610a0d57600080fd5b505af1158015610a21573d6000803e3d6000fd5b505050505b6000610a3285336103c4565b905083811015610a905760405162461bcd60e51b8152602060048201526024808201527f45524332303a206275726e20616d6f756e74206578636565647320616c6c6f77604482015263616e636560e01b6064820152608401610688565b610a9d8533868403611245565b610aa7858561147f565b5050505050565b6005546001600160a01b0316336001600160a01b031614610ae15760405162461bcd60e51b815260040161068890611863565b6001600160a01b038216610b075760405162461bcd60e51b81526004016106889061189a565b600680546001600160a01b0319166001600160a01b03841690811790915560078290556040517f6c591da8da2f6e69746d7d9ae61c27ee29fbe303798141b4942ae2aef54274b190600090a25050565b600b5461010090046001600160a01b0316610b6f3390565b6001600160a01b031614610bc55760405162461bcd60e51b815260206004820152601e60248201527f4c45524332303a204f6e6c79206c6f73736c65737320636f6e747261637400006044820152606401610688565b600b5460ff16610c175760405162461bcd60e51b815260206004820152601760248201527f4c45524332303a204c6f73736c657373206973206f66660000000000000000006044820152606401610688565b806000805b82811015610ce8576000858583818110610c4657634e487b7160e01b600052603260045260246000fd5b9050602002016020810190610c5b91906115dc565b6001600160a01b03811660009081526020819052604081208054919055909150610c8581856118e2565b600b546040518381529195506001600160a01b03610100909104811691908416907fddf252ad1be2c89b69c2b068fc378daa952ba7f163c4a11628f55a4df523b3ef9060200160405180910390a350508080610ce09061194c565b915050610c1c565b50600b5461010090046001600160a01b031660009081526020819052604081208054839290610d189084906118e2565b909155505050505050565b60606004805461044a90611911565b600b546000908390839060ff1615610db457600b5461010090046001600160a01b031663568c75a9610d613390565b84846040518463ffffffff1660e01b8152600401610d81939291906117ec565b600060405180830381600087803b158015610d9b57600080fd5b505af1158015610daf573d6000803e3d6000fd5b505050505b3360009081526001602090815260408083206001600160a01b038916845290915290205484811015610e365760405162461bcd60e51b815260206004820152602560248201527f45524332303a2064656372656173656420616c6c6f77616e63652062656c6f77604482015264207a65726f60d81b6064820152608401610688565b610e4533876106ab88856118fa565b50600195945050505050565b600b546000908390839060ff1615610ed357600b5461010090046001600160a01b0316631ffb811f610e803390565b84846040518463ffffffff1660e01b8152600401610ea0939291906117ec565b600060405180830381600087803b158015610eba57600080fd5b505af1158015610ece573d6000803e3d6000fd5b505050505b61055a3386866112a7565b6005546001600160a01b0316336001600160a01b031614610f115760405162461bcd60e51b815260040161068890611863565b600a54610f605760405162461bcd60e51b815260206004820152601b60248201527f45524332303a205475726e4f6666206e6f742070726f706f73656400000000006044820152606401610688565b42600a541115610fb25760405162461bcd60e51b815260206004820152601c60248201527f45524332303a2054696d65206c6f636b20696e2070726f6772657373000000006044820152606401610688565b600b805460ff191690556000600a8190556040517f3eb72350c9c7928d31e9ab450bfff2c159434aa4b82658a7d8eae7f109cb4e7b9190a1565b6006546001600160a01b0316336001600160a01b03161461104f5760405162461bcd60e51b815260206004820152601960248201527f4c45524332303a204d7573742062652063616e646974617465000000000000006044820152606401610688565b600754815160208301201461109c5760405162461bcd60e51b81526020600482015260136024820152724c45524332303a20496e76616c6964206b657960681b6044820152606401610688565b6006546040516001600160a01b03909116907fb94bba6936ec7f75ee931dadf6e1a4d66b43d09b6fa0178fb13df9b77fb5841f90600090a26006546001600160a01b03166110fc5760405162461bcd60e51b81526004016106889061189a565b5060068054600580546001600160a01b03199081166001600160a01b038416179091551690556000600755565b6005546001600160a01b0316336001600160a01b03161461115c5760405162461bcd60e51b815260040161068890611863565b600a54156111ac5760405162461bcd60e51b815260206004820181905260248201527f4c45524332303a205475726e4f666620616c72656164792070726f706f7365646044820152606401610688565b600b5460ff166111fe5760405162461bcd60e51b815260206004820152601c60248201527f4c45524332303a204c6f73736c65737320616c7265616479206f6666000000006044820152606401610688565b60095461120b90426118e2565b600a8190556040519081527f6ca688e6e3ddd707280140b2bf0106afe883689b6c74e68cbd517576dd9c245a9060200160405180910390a1565b6001600160a01b0383811660008181526001602090815260408083209487168084529482529182902085905590518481527f8c5be1e5ebec7d5bd14f71427d1e84f3dd0314c0f7b2291e5b200ac8c7c3b92591015b60405180910390a3505050565b6001600160a01b03831661130b5760405162461bcd60e51b815260206004820152602560248201527f45524332303a207472616e736665722066726f6d20746865207a65726f206164604482015264647265737360d81b6064820152608401610688565b6001600160a01b03821661136d5760405162461bcd60e51b815260206004820152602360248201527f45524332303a207472616e7366657220746f20746865207a65726f206164647260448201526265737360e81b6064820152608401610688565b6001600160a01b038316600090815260208190526040902054818110156113e55760405162461bcd60e51b815260206004820152602660248201527f45524332303a207472616e7366657220616d6f756e7420657863656564732062604482015265616c616e636560d01b6064820152608401610688565b6113ef82826118fa565b6001600160a01b0380861660009081526020819052604080822093909355908516815290812080548492906114259084906118e2565b92505081905550826001600160a01b0316846001600160a01b03167fddf252ad1be2c89b69c2b068fc378daa952ba7f163c4a11628f55a4df523b3ef8460405161147191815260200190565b60405180910390a350505050565b6001600160a01b0382166114df5760405162461bcd60e51b815260206004820152602160248201527f45524332303a206275726e2066726f6d20746865207a65726f206164647265736044820152607360f81b6064820152608401610688565b6001600160a01b038216600090815260208190526040902054818110156115535760405162461bcd60e51b815260206004820152602260248201527f45524332303a206275726e20616d6f756e7420657863656564732062616c616e604482015261636560f01b6064820152608401610688565b6001600160a01b03831660009081526020819052604081208383039055600280548492906115829084906118fa565b90915550506040518281526000906001600160a01b038516907fddf252ad1be2c89b69c2b068fc378daa952ba7f163c4a11628f55a4df523b3ef9060200161129a565b80356001600160a01b038116811461043657600080fd5b6000602082840312156115ed578081fd5b6115f6826115c5565b9392505050565b6000806040838503121561160f578081fd5b611618836115c5565b9150611626602084016115c5565b90509250929050565b600080600060608486031215611643578081fd5b61164c846115c5565b925061165a602085016115c5565b9150604084013590509250925092565b6000806040838503121561167c578182fd5b611685836115c5565b946020939093013593505050565b600080602083850312156116a5578182fd5b823567ffffffffffffffff808211156116bc578384fd5b818501915085601f8301126116cf578384fd5b8135818111156116dd578485fd5b86602080830285010111156116f0578485fd5b60209290920196919550909350505050565b600060208284031215611713578081fd5b81356001600160e01b0319811681146115f6578182fd5b60006020828403121561173b578081fd5b813567ffffffffffffffff80821115611752578283fd5b818401915084601f830112611765578283fd5b8135818111156117775761177761197d565b604051601f8201601f19908116603f0116810190838211818310171561179f5761179f61197d565b816040528281528760208487010111156117b7578586fd5b826020860160208301379182016020019490945295945050505050565b6000602082840312156117e5578081fd5b5035919050565b6001600160a01b039384168152919092166020820152604081019190915260600190565b6000602080835283518082850152825b8181101561183c57858101830151858201604001528201611820565b8181111561184d5783604083870101525b50601f01601f1916929092016040019392505050565b6020808252601e908201527f4c45524332303a204d757374206265207265636f766572792061646d696e0000604082015260600190565b60208082526028908201527f4c45524332303a2043616e6469646174652063616e6e6f74206265207a65726f604082015267206164647265737360c01b606082015260800190565b600082198211156118f5576118f5611967565b500190565b60008282101561190c5761190c611967565b500390565b60028104600182168061192557607f821691505b6020821081141561194657634e487b7160e01b600052602260045260246000fd5b50919050565b600060001982141561196057611960611967565b5060010190565b634e487b7160e01b600052601160045260246000fd5b634e487b7160e01b600052604160045260246000fdfea26469706673582212209bf74befecb099637926d39c6cc4102c8ca77f41f8081e8f90480e68b4680a3a64736f6c634300080200334c45524332303a2054696d656c6f636b20706572696f64206d757374206265204c45524332303a205265636f766572792061646d696e2063616e6e6f7420626500000000000000000000000057fb3a4205dcdfae514d13c211d6c8c08be58e8600000000000000000000000053745cc2c6dc4b1468f41d286cd1aab7aa7a1b81000000000000000000000000000000000000000000000000000000000001518000000000000000000000000038d40f5c8375f84c5b90bc460a94a436d09133fb",
  "deployedBytecode": "0x6080604052600b805460ff191660011790553480156200001e57600080fd5b5060405162001f8138038062001f818339810160408190526200004191620004b3565b604051806040016040528060078152602001665361616b75727560c81b8152506040518060400160405280600381526020016229a5a960e91b8152508585858560006001600160a01b0316836001600160a01b03161415620000ef5760405162461bcd60e51b815260206004820152602d602482015260008051602062001f6183398151915260448201526c207a65726f206164647265737360981b60648201526084015b60405180910390fd5b6001600160a01b0384166200014c5760405162461bcd60e51b815260206004820152602d602482015260008051602062001f6183398151915260448201526c207a65726f206164647265737360981b6064820152608401620000e6565b855162000161906003906020890190620003f0565b50845162000177906004906020880190620003f0565b50600880546001600160a01b038087166001600160a01b03199283161790925560058054928616928216929092179091556006805490911690556000600755611c2082116200020f5760405162461bcd60e51b815260206004820152602e602482015260008051602062001f4183398151915260448201526d067726561746572207468616e20360941b6064820152608401620000e6565b6202a30082106200026b5760405162461bcd60e51b8152602060048201526030602482015260008051602062001f4183398151915260448201526f6c657373207468616e2032206461797360801b6064820152608401620000e6565b60098290556000600a556001600160a01b038116620002dd5760405162461bcd60e51b815260206004820152602760248201527f4c45524332303a204c6f73736c6573732063616e6e6f74206265207a65726f206044820152666164647265737360c81b6064820152608401620000e6565b600b80546001600160a01b0390921661010002610100600160a81b0319909216919091179055506200032393508692506b033b2e3c9fd0803ce80000009150506200032d565b5050505062000568565b6001600160a01b038216620003855760405162461bcd60e51b815260206004820152601f60248201527f45524332303a206d696e7420746f20746865207a65726f2061646472657373006044820152606401620000e6565b806002600082825462000399919062000506565b90915550506001600160a01b038216600081815260208181526040808320805486019055518481527fddf252ad1be2c89b69c2b068fc378daa952ba7f163c4a11628f55a4df523b3ef910160405180910390a35050565b828054620003fe906200052b565b90600052602060002090601f0160209004810192826200042257600085556200046d565b82601f106200043d57805160ff19168380011785556200046d565b828001600101855582156200046d579182015b828111156200046d57825182559160200191906001019062000450565b506200047b9291506200047f565b5090565b5b808211156200047b576000815560010162000480565b80516001600160a01b0381168114620004ae57600080fd5b919050565b60008060008060808587031215620004c9578384fd5b620004d48562000496565b9350620004e46020860162000496565b925060408501519150620004fb6060860162000496565b905092959194509250565b600082198211156200052657634e487b7160e01b81526011600452602481fd5b500190565b6002810460018216806200054057607f821691505b602082108114156200056257634e487b7160e01b600052602260045260246000fd5b50919050565b6119c980620005786000396000f3fe608060405234801561001057600080fd5b50600436106101c45760003560e01c80636e9960c3116100f9578063a9059cbb11610097578063ccfa214f11610071578063ccfa214f146103a1578063d6e242b8146103ae578063dd62ed3e146103b6578063f851a440146103ef576101c4565b8063a9059cbb14610373578063b38fe95714610386578063b5c228771461038e576101c4565b806393310ffe116100d357806393310ffe14610332578063936af9111461034557806395d89b4114610358578063a457c2d714610360576101c4565b80636e9960c3146102e557806370a08231146102f657806379cc67901461031f576101c4565b8063313ce5671161016657806342966c681161014057806342966c68146102ae5780635b8a194a146102c15780635f6529a3146102c957806361086b00146102dc576101c4565b8063313ce5671461025c57806334f6ebf51461026b578063395093511461029b576101c4565b806318160ddd116101a257806318160ddd1461021957806323b872dd1461022b5780632baa3c9e1461023e5780632ecaf67514610253576101c4565b806301ffc9a7146101c957806306fdde03146101f1578063095ea7b314610206575b600080fd5b6101dc6101d7366004611702565b610402565b60405190151581526020015b60405180910390f35b6101f961043b565b6040516101e89190611810565b6101dc61021436600461166a565b6104cd565b6002545b6040519081526020016101e8565b6101dc61023936600461162f565b610565565b61025161024c3660046115dc565b6106be565b005b61021d60095481565b604051601281526020016101e8565b600b546102839061010090046001600160a01b031681565b6040516001600160a01b0390911681526020016101e8565b6101dc6102a936600461166a565b6107a5565b6102516102bc3660046117d4565b61085d565b6102516108e7565b600554610283906001600160a01b031681565b61021d600a5481565b6008546001600160a01b0316610283565b61021d6103043660046115dc565b6001600160a01b031660009081526020819052604090205490565b61025161032d36600461166a565b6109aa565b61025161034036600461166a565b610aae565b610251610353366004611693565b610b57565b6101f9610d23565b6101dc61036e36600461166a565b610d32565b6101dc61038136600461166a565b610e51565b610251610ede565b61025161039c36600461172a565b610fec565b600b546101dc9060ff1681565b610251611129565b61021d6103c43660046115fd565b6001600160a01b03918216600090815260016020908152604080832093909416825291909152205490565b600854610283906001600160a01b031681565b60006001600160e01b031982166336372b0760e01b148061043357506001600160e01b03198216630fcd53a160e21b145b90505b919050565b60606003805461044a90611911565b80601f016020809104026020016040519081016040528092919081815260200182805461047690611911565b80156104c35780601f10610498576101008083540402835291602001916104c3565b820191906000526020600020905b8154815290600101906020018083116104a657829003601f168201915b5050505050905090565b600b546000908390839060ff161561054f57600b5461010090046001600160a01b03166347abf3be6104fc3390565b84846040518463ffffffff1660e01b815260040161051c939291906117ec565b600060405180830381600087803b15801561053657600080fd5b505af115801561054a573d6000803e3d6000fd5b505050505b61055a338686611245565b506001949350505050565b600b5460009084908490849060ff161561060757600b5461010090046001600160a01b031663379f5c696105963390565b6040516001600160e01b031960e084901b1681526001600160a01b0391821660048201528187166024820152908516604482015260648101849052608401600060405180830381600087803b1580156105ee57600080fd5b505af1158015610602573d6000803e3d6000fd5b505050505b6001600160a01b0387166000908152600160209081526040808320338452909152902054858110156106915760405162461bcd60e51b815260206004820152602860248201527f45524332303a207472616e7366657220616d6f756e74206578636565647320616044820152676c6c6f77616e636560c01b60648201526084015b60405180910390fd5b61069c8888886112a7565b6106b088336106ab89856118fa565b611245565b506001979650505050505050565b6005546001600160a01b0316336001600160a01b0316146106f15760405162461bcd60e51b815260040161068890611863565b6008546001600160a01b038281169116141561074f5760405162461bcd60e51b815260206004820152601f60248201527f4c45524332303a2043616e6e6f74207365742073616d652061646472657373006044820152606401610688565b6040516001600160a01b038216907f71614071b88dee5e0b2ae578a9dd7b2ebbe9ae832ba419dc0242cd065a290b6c90600090a2600880546001600160a01b0319166001600160a01b0392909216919091179055565b600b546000908390839060ff161561082757600b5461010090046001600160a01b031663cf5961bb6107d43390565b84846040518463ffffffff1660e01b81526004016107f4939291906117ec565b600060405180830381600087803b15801561080e57600080fd5b505af1158015610822573d6000803e3d6000fd5b505050505b3360008181526001602090815260408083206001600160a01b038a16845290915290205461055a919087906106ab9088906118e2565b33600b54829060ff16156108d857600b54604051634a1fefbd60e01b81526001600160a01b0384811660048301526024820184905261010090920490911690634a1fefbd90604401600060405180830381600087803b1580156108bf57600080fd5b505af11580156108d3573d6000803e3d6000fd5b505050505b6108e2338461147f565b505050565b6005546001600160a01b0316336001600160a01b03161461091a5760405162461bcd60e51b815260040161068890611863565b600b5460ff161561096d5760405162461bcd60e51b815260206004820152601b60248201527f4c45524332303a204c6f73736c65737320616c7265616479206f6e00000000006044820152606401610688565b6000600a819055600b805460ff191660011790556040517f1ba3b66404043da8297d0b876fa6464f2cb127edfc6626308046d4503028322b9190a1565b600b548290829060ff1615610a2657600b54604051634a1fefbd60e01b81526001600160a01b0384811660048301526024820184905261010090920490911690634a1fefbd90604401600060405180830381600087803b158015610a0d57600080fd5b505af1158015610a21573d6000803e3d6000fd5b505050505b6000610a3285336103c4565b905083811015610a905760405162461bcd60e51b8152602060048201526024808201527f45524332303a206275726e20616d6f756e74206578636565647320616c6c6f77604482015263616e636560e01b6064820152608401610688565b610a9d8533868403611245565b610aa7858561147f565b5050505050565b6005546001600160a01b0316336001600160a01b031614610ae15760405162461bcd60e51b815260040161068890611863565b6001600160a01b038216610b075760405162461bcd60e51b81526004016106889061189a565b600680546001600160a01b0319166001600160a01b03841690811790915560078290556040517f6c591da8da2f6e69746d7d9ae61c27ee29fbe303798141b4942ae2aef54274b190600090a25050565b600b5461010090046001600160a01b0316610b6f3390565b6001600160a01b031614610bc55760405162461bcd60e51b815260206004820152601e60248201527f4c45524332303a204f6e6c79206c6f73736c65737320636f6e747261637400006044820152606401610688565b600b5460ff16610c175760405162461bcd60e51b815260206004820152601760248201527f4c45524332303a204c6f73736c657373206973206f66660000000000000000006044820152606401610688565b806000805b82811015610ce8576000858583818110610c4657634e487b7160e01b600052603260045260246000fd5b9050602002016020810190610c5b91906115dc565b6001600160a01b03811660009081526020819052604081208054919055909150610c8581856118e2565b600b546040518381529195506001600160a01b03610100909104811691908416907fddf252ad1be2c89b69c2b068fc378daa952ba7f163c4a11628f55a4df523b3ef9060200160405180910390a350508080610ce09061194c565b915050610c1c565b50600b5461010090046001600160a01b031660009081526020819052604081208054839290610d189084906118e2565b909155505050505050565b60606004805461044a90611911565b600b546000908390839060ff1615610db457600b5461010090046001600160a01b031663568c75a9610d613390565b84846040518463ffffffff1660e01b8152600401610d81939291906117ec565b600060405180830381600087803b158015610d9b57600080fd5b505af1158015610daf573d6000803e3d6000fd5b505050505b3360009081526001602090815260408083206001600160a01b038916845290915290205484811015610e365760405162461bcd60e51b815260206004820152602560248201527f45524332303a2064656372656173656420616c6c6f77616e63652062656c6f77604482015264207a65726f60d81b6064820152608401610688565b610e4533876106ab88856118fa565b50600195945050505050565b600b546000908390839060ff1615610ed357600b5461010090046001600160a01b0316631ffb811f610e803390565b84846040518463ffffffff1660e01b8152600401610ea0939291906117ec565b600060405180830381600087803b158015610eba57600080fd5b505af1158015610ece573d6000803e3d6000fd5b505050505b61055a3386866112a7565b6005546001600160a01b0316336001600160a01b031614610f115760405162461bcd60e51b815260040161068890611863565b600a54610f605760405162461bcd60e51b815260206004820152601b60248201527f45524332303a205475726e4f6666206e6f742070726f706f73656400000000006044820152606401610688565b42600a541115610fb25760405162461bcd60e51b815260206004820152601c60248201527f45524332303a2054696d65206c6f636b20696e2070726f6772657373000000006044820152606401610688565b600b805460ff191690556000600a8190556040517f3eb72350c9c7928d31e9ab450bfff2c159434aa4b82658a7d8eae7f109cb4e7b9190a1565b6006546001600160a01b0316336001600160a01b03161461104f5760405162461bcd60e51b815260206004820152601960248201527f4c45524332303a204d7573742062652063616e646974617465000000000000006044820152606401610688565b600754815160208301201461109c5760405162461bcd60e51b81526020600482015260136024820152724c45524332303a20496e76616c6964206b657960681b6044820152606401610688565b6006546040516001600160a01b03909116907fb94bba6936ec7f75ee931dadf6e1a4d66b43d09b6fa0178fb13df9b77fb5841f90600090a26006546001600160a01b03166110fc5760405162461bcd60e51b81526004016106889061189a565b5060068054600580546001600160a01b03199081166001600160a01b038416179091551690556000600755565b6005546001600160a01b0316336001600160a01b03161461115c5760405162461bcd60e51b815260040161068890611863565b600a54156111ac5760405162461bcd60e51b815260206004820181905260248201527f4c45524332303a205475726e4f666620616c72656164792070726f706f7365646044820152606401610688565b600b5460ff166111fe5760405162461bcd60e51b815260206004820152601c60248201527f4c45524332303a204c6f73736c65737320616c7265616479206f6666000000006044820152606401610688565b60095461120b90426118e2565b600a8190556040519081527f6ca688e6e3ddd707280140b2bf0106afe883689b6c74e68cbd517576dd9c245a9060200160405180910390a1565b6001600160a01b0383811660008181526001602090815260408083209487168084529482529182902085905590518481527f8c5be1e5ebec7d5bd14f71427d1e84f3dd0314c0f7b2291e5b200ac8c7c3b92591015b60405180910390a3505050565b6001600160a01b03831661130b5760405162461bcd60e51b815260206004820152602560248201527f45524332303a207472616e736665722066726f6d20746865207a65726f206164604482015264647265737360d81b6064820152608401610688565b6001600160a01b03821661136d5760405162461bcd60e51b815260206004820152602360248201527f45524332303a207472616e7366657220746f20746865207a65726f206164647260448201526265737360e81b6064820152608401610688565b6001600160a01b038316600090815260208190526040902054818110156113e55760405162461bcd60e51b815260206004820152602660248201527f45524332303a207472616e7366657220616d6f756e7420657863656564732062604482015265616c616e636560d01b6064820152608401610688565b6113ef82826118fa565b6001600160a01b0380861660009081526020819052604080822093909355908516815290812080548492906114259084906118e2565b92505081905550826001600160a01b0316846001600160a01b03167fddf252ad1be2c89b69c2b068fc378daa952ba7f163c4a11628f55a4df523b3ef8460405161147191815260200190565b60405180910390a350505050565b6001600160a01b0382166114df5760405162461bcd60e51b815260206004820152602160248201527f45524332303a206275726e2066726f6d20746865207a65726f206164647265736044820152607360f81b6064820152608401610688565b6001600160a01b038216600090815260208190526040902054818110156115535760405162461bcd60e51b815260206004820152602260248201527f45524332303a206275726e20616d6f756e7420657863656564732062616c616e604482015261636560f01b6064820152608401610688565b6001600160a01b03831660009081526020819052604081208383039055600280548492906115829084906118fa565b90915550506040518281526000906001600160a01b038516907fddf252ad1be2c89b69c2b068fc378daa952ba7f163c4a11628f55a4df523b3ef9060200161129a565b80356001600160a01b038116811461043657600080fd5b6000602082840312156115ed578081fd5b6115f6826115c5565b9392505050565b6000806040838503121561160f578081fd5b611618836115c5565b9150611626602084016115c5565b90509250929050565b600080600060608486031215611643578081fd5b61164c846115c5565b925061165a602085016115c5565b9150604084013590509250925092565b6000806040838503121561167c578182fd5b611685836115c5565b946020939093013593505050565b600080602083850312156116a5578182fd5b823567ffffffffffffffff808211156116bc578384fd5b818501915085601f8301126116cf578384fd5b8135818111156116dd578485fd5b86602080830285010111156116f0578485fd5b60209290920196919550909350505050565b600060208284031215611713578081fd5b81356001600160e01b0319811681146115f6578182fd5b60006020828403121561173b578081fd5b813567ffffffffffffffff80821115611752578283fd5b818401915084601f830112611765578283fd5b8135818111156117775761177761197d565b604051601f8201601f19908116603f0116810190838211818310171561179f5761179f61197d565b816040528281528760208487010111156117b7578586fd5b826020860160208301379182016020019490945295945050505050565b6000602082840312156117e5578081fd5b5035919050565b6001600160a01b039384168152919092166020820152604081019190915260600190565b6000602080835283518082850152825b8181101561183c57858101830151858201604001528201611820565b8181111561184d5783604083870101525b50601f01601f1916929092016040019392505050565b6020808252601e908201527f4c45524332303a204d757374206265207265636f766572792061646d696e0000604082015260600190565b60208082526028908201527f4c45524332303a2043616e6469646174652063616e6e6f74206265207a65726f604082015267206164647265737360c01b606082015260800190565b600082198211156118f5576118f5611967565b500190565b60008282101561190c5761190c611967565b500390565b60028104600182168061192557607f821691505b6020821081141561194657634e487b7160e01b600052602260045260246000fd5b50919050565b600060001982141561196057611960611967565b5060010190565b634e487b7160e01b600052601160045260246000fd5b634e487b7160e01b600052604160045260246000fdfea26469706673582212209bf74befecb099637926d39c6cc4102c8ca77f41f8081e8f90480e68b4680a3a64736f6c634300080200334c45524332303a2054696d656c6f636b20706572696f64206d757374206265204c45524332303a205265636f766572792061646d696e2063616e6e6f74206265"
}